SUSAUFKZABZRZXB00010        13N H N35460000W111503000                           FL180FL180UNLTDRR ALBUQUERQUE ARTCC        214362003
SUSAUFKZABZRZXB00020        13N H N35420000W110140000                           FL180FL180UNLTDRR ALBUQUERQUE ARTCC        214372003
SUSAUFKZABZRZXB00030        13N H N36020000W108130000                           FL180FL180UNLTDRR ALBUQUERQUE ARTCC        214382003
SUSAUFKZABZRZXB00040        13N H N36120000W107280000                           FL180FL180UNLTDRR ALBUQUERQUE ARTCC        214392003
SUSAUFKZABZRZXB00050        13N H N36430000W106050000                           FL180FL180UNLTDRR ALBUQUERQUE ARTCC        214402003
SUSAUFKZABZRZXB00060        13N H N36430000W105000000                           FL180FL180UNLTDRR ALBUQUERQUE ARTCC        214412003
SUSAUFKZABZRZXB00070KZKCKZKC13N H N37300000W102330000                           FL180FL180UNLTDRR ALBUQUERQUE ARTCC        214422003
SUSAUFKZABZRZXB00080KZKCKZKC13N H N36300000W101450000                           FL180FL180UNLTDRR ALBUQUERQUE ARTCC        214432003
SUSAUFKZABZRZXB00090        13N H N35494500W100000000                           FL180FL180UNLTDRR ALBUQUERQUE ARTCC        214442003
SUSAUFKZABZRZXB00100        13N H N35200000W100000000                           FL180FL180UNLTDRR ALBUQUERQUE ARTCC        214452003
SUSAUFKZABZRZXB00110        13N H N34520000W100190000                           FL180FL180UNLTDRR ALBUQUERQUE ARTCC        214462003
SUSAUFKZABZRZXB00120        13N H N34280000W100450000                           FL180FL180UNLTDRR ALBUQUERQUE ARTCC        214472003
SUSAUFKZABZRZXB00130        13N H N34360000W102000000                           FL180FL180UNLTDRR ALBUQUERQUE ARTCC        214482003
SUSAUFKZABZRZXB00140        13N H N34330000W102193000                           FL180FL180UNLTDRR ALBUQUERQUE ARTCC        214492003
SUSAUFKZABZRZXB00150        13N H N34190000W102480000                           FL180FL180UNLTDRR ALBUQUERQUE ARTCC        214502003
SUSAUFKZABZRZXB00160        13N H N33463000W103220000                           FL180FL180UNLTDRR ALBUQUERQUE ARTCC        214512003
SUSAUFKZABZRZXB00170        13N H N33241000W103413000                           FL180FL180UNLTDRR ALBUQUERQUE ARTCC        214522003
SUSAUFKZABZRZXB00180        13N H N33230000W103480000                           FL180FL180UNLTDRR ALBUQUERQUE ARTCC        214532003
SUSAUFKZABZRZXB00190        13N H N33000000W103480000                           FL180FL180UNLTDRR ALBUQUERQUE ARTCC        214542003
SUSAUFKZABZRZXB00200        13N H N32280000W103560000                           FL180FL180UNLTDRR ALBUQUERQUE ARTCC        214552003
SUSAUFKZABZRZXB00210        13N H N32020000W103480000                           FL180FL180UNLTDRR ALBUQUERQUE ARTCC        214562003
SUSAUFKZABZRZXB00220        13N H N31390000W103200000                           FL180FL180UNLTDRR ALBUQUERQUE ARTCC        214572003
SUSAUFKZABZRZXB00230KZHUKZHU13N H N31170000W102090000                           FL180FL180UNLTDRR ALBUQUERQUE ARTCC        214582003
SUSAUFKZABZRZXB00240        13N G N29460000W102333000                           FL180FL180UNLTDRR ALBUQUERQUE ARTCC        214592003
SUSAUFKZABZRZXB00250MMFR    13N G N29461585W102333665                           FL180FL180UNLTDRR ALBUQUERQUE ARTCC        214602003
SUSAUFKZABZRZXB00260MMFR    13N G N29461756W102334994                           FL180FL180UNLTDRR ALBUQUERQUE ARTCC        214612003
SUSAUFKZABZRZXB00270MMFR    13N G N29460934W102340326                           FL180FL180UNLTDRR ALBUQUERQUE ARTCC        214622003
SUSAUFKZABZRZXB00280MMFR    13N G N29455119W102341087                           FL180FL180UNLTDRR ALBUQUERQUE ARTCC        214632003
SUSAUFKZABZRZXB00290MMFR    13N G N29452324W102340706                           FL180FL180UNLTDRR ALBUQUERQUE ARTCC        214642003
SUSAUFKZABZRZXB00300MMFR    13N G N29451235W102341296                           FL180FL180UNLTDRR ALBUQUERQUE ARTCC        214652003
SUSAUFKZABZRZXB00310MMFR    13N G N29450830W102343480                           FL180FL180UNLTDRR ALBUQUERQUE ARTCC        214662003
SUSAUFKZABZRZXB00320MMFR    13N G N29445349W102345476                           FL180FL180UNLTDRR ALBUQUERQUE ARTCC        214672003
SUSAUFKZABZRZXB00330MMFR    13N G N29445438W102351086                           FL180FL180UNLTDRR ALBUQUERQUE ARTCC        214682003
SUSAUFKZABZRZXB00340MMFR    13N G N29450850W102353354                           FL180FL180UNLTDRR ALBUQUERQUE ARTCC        214692003
SUSAUFKZABZRZXB00350MMFR    13N G N29450607W102354873                           FL180FL180UNLTDRR ALBUQUERQUE ARTCC        214702003
SUSAUFKZABZRZXB00360MMFR    13N G N29444548W102361156                           FL180FL180UNLTDRR ALBUQUERQUE ARTCC        214712003
SUSAUFKZABZRZXB00370MMFR    13N G N29444060W102363435                           FL180FL180UNLTDRR ALBUQUERQUE ARTCC        214722003
SUSAUFKZABZRZXB00380MMFR    13N G N29440935W102372088                           FL180FL180UNLTDRR ALBUQUERQUE ARTCC        214732003
SUSAUFKZABZRZXB00390MMFR    13N G N29440362W102373893                           FL180FL180UNLTDRR ALBUQUERQUE ARTCC        214742003
SUSAUFKZABZRZXB00400MMFR    13N G N29440223W102390520                           FL180FL180UNLTDRR ALBUQUERQUE ARTCC        214752003
SUSAUFKZABZRZXB00410MMFR    13N G N29441387W102393167                           FL180FL180UNLTDRR ALBUQUERQUE ARTCC        214762003
SUSAUFKZABZRZXB00420MMFR    13N G N29443790W102395150                           FL180FL180UNLTDRR ALBUQUERQUE ARTCC        214772003
SUSAUFKZABZRZXB00430MMFR    13N G N29443958W102400290                           FL180FL180UNLTDRR ALBUQUERQUE ARTCC        214782003
SUSAUFKZABZRZXB00440MMFR    13N G N29443053W102401710                           FL180FL180UNLTDRR ALBUQUERQUE ARTCC        214792003
SUSAUFKZABZRZXB00450MMFR    13N G N29434183W102403715                           FL180FL180UNLTDRR ALBUQUERQUE ARTCC        214802003
SUSAUFKZABZRZXB00460MMFR    13N G N29432313W102405314                           FL180FL180UNLTDRR ALBUQUERQUE ARTCC        214812003
SUSAUFKZABZRZXB00470MMFR    13N G N29430307W102410860                           FL180FL180UNLTDRR ALBUQUERQUE ARTCC        214822003
SUSAUFKZABZRZXB00480MMFR    13N G N29423579W102410489                           FL180FL180UNLTDRR ALBUQUERQUE ARTCC        214832003
SUSAUFKZABZRZXB00490MMFR    13N G N29420028W102411165                           FL180FL180UNLTDRR ALBUQUERQUE ARTCC        214842003
SUSAUFKZABZRZXB00500MMFR    13N G N29414050W102413538                           FL180FL180UNLTDRR ALBUQUERQUE ARTCC        214852003
SUSAUFKZABZRZXB00510MMFR    13N G N29411905W102414777                           FL180FL180UNLTDRR ALBUQUERQUE ARTCC        214862003
SUSAUFKZABZRZXB00520MMFR    13N G N29410829W102414307                           FL180FL180UNLTDRR ALBUQUERQUE ARTCC        214872003
SUSAUFKZABZRZXB00530MMFR    13N G N29404426W102411662                           FL180FL180UNLTDRR ALBUQUERQUE ARTCC        214882003
SUSAUFKZABZRZXB00540MMFR    13N G N29401373W102413565                           FL180FL180UNLTDRR ALBUQUERQUE ARTCC        214892003
SUSAUFKZABZRZXB00550MMFR    13N G N29400884W102420219                           FL180FL180UNLTDRR ALBUQUERQUE ARTCC        214902003
SUSAUFKZABZRZXB00560MMFR    13N G N29391522W102424025                           FL180FL180UNLTDRR ALBUQUERQUE ARTCC        214912003
SUSAUFKZABZRZXB00570MMFR    13N G N29385711W102430967                           FL180FL180UNLTDRR ALBUQUERQUE ARTCC        214922003
SUSAUFKZABZRZXB00580MMFR    13N G N29382399W102431849                           FL180FL180UNLTDRR ALBUQUERQUE ARTCC        214932003
SUSAUFKZABZRZXB00590MMFR    13N G N29381832W102433156                           FL180FL180UNLTDRR ALBUQUERQUE ARTCC        214942003
SUSAUFKZABZRZXB00600MMFR    13N G N29382169W102435710                           FL180FL180UNLTDRR ALBUQUERQUE ARTCC        214952003
SUSAUFKZABZRZXB00610MMFR    13N G N29375446W102441424                           FL180FL180UNLTDRR ALBUQUERQUE ARTCC        214962003
SUSAUFKZABZRZXB00620MMFR    13N G N29363757W102440216                           FL180FL180UNLTDRR ALBUQUERQUE ARTCC        214972003
SUSAUFKZABZRZXB00630MMFR    13N G N29353314W102441842                           FL180FL180UNLTDRR ALBUQUERQUE ARTCC        214982003
SUSAUFKZABZRZXB00640MMFR    13N G N29352824W102444305                           FL180FL180UNLTDRR ALBUQUERQUE ARTCC        214992003
SUSAUFKZABZRZXB00650MMFR    13N G N29354652W102452557                           FL180FL180UNLTDRR ALBUQUERQUE ARTCC        215002003
SUSAUFKZABZRZXB00660MMFR    13N G N29354489W102453694                           FL180FL180UNLTDRR ALBUQUERQUE ARTCC        215012003
SUSAUFKZABZRZXB00670MMFR    13N G N29352921W102454551                           FL180FL180UNLTDRR ALBUQUERQUE ARTCC        215022003
SUSAUFKZABZRZXB00680MMFR    13N G N29351433W102454554                           FL180FL180UNLTDRR ALBUQUERQUE ARTCC        215032003
SUSAUFKZABZRZXB00690MMFR    13N G N29342305W102452769                           FL180FL180UNLTDRR ALBUQUERQUE ARTCC        215042003
SUSAUFKZABZRZXB00700MMFR    13N G N29341480W102453623                           FL180FL180UNLTDRR ALBUQUERQUE ARTCC        215052003
SUSAUFKZABZRZXB00710MMFR    13N G N29342228W102455515                           FL180FL180UNLTDRR ALBUQUERQUE ARTCC        215062003
SUSAUFKZABZRZXB00720MMFR    13N G N29341569W102460746                           FL180FL180UNLTDRR ALBUQUERQUE ARTCC        215072003
SUSAUFKZABZRZXB00730MMFR    13N G N29333357W102461891                           FL180FL180UNLTDRR ALBUQUERQUE ARTCC        215082003
SUSAUFKZABZRZXB00740MMFR    13N G N29330631W102462844                           FL180FL180UNLTDRR ALBUQUERQUE ARTCC        215092003
SUSAUFKZABZRZXB00750MMFR    13N G N29324644W102460768                           FL180FL180UNLTDRR ALBUQUERQUE ARTCC        215102003
SUSAUFKZABZRZXB00760MMFR    13N G N29322006W102464464                           FL180FL180UNLTDRR ALBUQUERQUE ARTCC        215112003
SUSAUFKZABZRZXB00770MMFR    13N G N29322342W102470923                           FL180FL180UNLTDRR ALBUQUERQUE ARTCC        215122003
SUSAUFKZABZRZXB00780MMFR    13N G N29320938W102471587                           FL180FL180UNLTDRR ALBUQUERQUE ARTCC        215132003
SUSAUFKZABZRZXB00790MMFR    13N G N29315037W102471593                           FL180FL180UNLTDRR ALBUQUERQUE ARTCC        215142003
SUSAUFKZABZRZXB00800MMFR    13N G N29312975W102473870                           FL180FL180UNLTDRR ALBUQUERQUE ARTCC        215152003
SUSAUFKZABZRZXB00810MMFR    13N G N29311575W102480611                           FL180FL180UNLTDRR ALBUQUERQUE ARTCC        215162003
SUSAUFKZABZRZXB00820MMFR    13N G N29303857W102480905                           FL180FL180UNLTDRR ALBUQUERQUE ARTCC        215172003
SUSAUFKZABZRZXB00830MMFR    13N G N29295310W102480344                           FL180FL180UNLTDRR ALBUQUERQUE ARTCC        215182003
SUSAUFKZABZRZXB00840MMFR    13N G N29292501W102480921                           FL180FL180UNLTDRR ALBUQUERQUE ARTCC        215192003
SUSAUFKZABZRZXB00850MMFR    13N G N29290844W102475128                           FL180FL180UNLTDRR ALBUQUERQUE ARTCC        215202003
SUSAUFKZABZRZXB00860MMFR    13N G N29290017W102475040                           FL180FL180UNLTDRR ALBUQUERQUE ARTCC        215212003
SUSAUFKZABZRZXB00870MMFR    13N G N29284781W102480649                           FL180FL180UNLTDRR ALBUQUERQUE ARTCC        215222003
SUSAUFKZABZRZXB00880MMFR    13N G N29284125W102483577                           FL180FL180UNLTDRR ALBUQUERQUE ARTCC        215232003
SUSAUFKZABZRZXB00890MMFR    13N G N29275746W102484722                           FL180FL180UNLTDRR ALBUQUERQUE ARTCC        215242003
SUSAUFKZABZRZXB00900MMFR    13N G N29271041W102492038                           FL180FL180UNLTDRR ALBUQUERQUE ARTCC        215252003
SUSAUFKZABZRZXB00910MMFR    13N G N29264806W102485964                           FL180FL180UNLTDRR ALBUQUERQUE ARTCC        215262003
SUSAUFKZABZRZXB00920MMFR    13N G N29263324W102493276                           FL180FL180UNLTDRR ALBUQUERQUE ARTCC        215272003
SUSAUFKZABZRZXB00930MMFR    13N G N29261589W102493751                           FL180FL180UNLTDRR ALBUQUERQUE ARTCC        215282003
SUSAUFKZABZRZXB00940MMFR    13N G N29255109W102493757                           FL180FL180UNLTDRR ALBUQUERQUE ARTCC        215292003
SUSAUFKZABZRZXB00950MMFR    13N G N29245900W102492447                           FL180FL180UNLTDRR ALBUQUERQUE ARTCC        215302003
SUSAUFKZABZRZXB00960MMFR    13N G N29243093W102494150                           FL180FL180UNLTDRR ALBUQUERQUE ARTCC        215312003
SUSAUFKZABZRZXB00970MMFR    13N G N29242265W102493960                           FL180FL180UNLTDRR ALBUQUERQUE ARTCC        215322003
SUSAUFKZABZRZXB00980MMFR    13N G N29241764W102490942                           FL180FL180UNLTDRR ALBUQUERQUE ARTCC        215332003
SUSAUFKZABZRZXB00990MMFR    13N G N29240436W102483824                           FL180FL180UNLTDRR ALBUQUERQUE ARTCC        215342003
SUSAUFKZABZRZXB01000MMFR    13N G N29235775W102483541                           FL180FL180UNLTDRR ALBUQUERQUE ARTCC        215352003
SUSAUFKZABZRZXB01010MMFR    13N G N29234453W102484206                           FL180FL180UNLTDRR ALBUQUERQUE ARTCC        215362003
SUSAUFKZABZRZXB01020MMFR    13N G N29234210W102491134                           FL180FL180UNLTDRR ALBUQUERQUE ARTCC        215372003
SUSAUFKZABZRZXB01030MMFR    13N G N29232644W102493122                           FL180FL180UNLTDRR ALBUQUERQUE ARTCC        215382003
SUSAUFKZABZRZXB01040MMFR    13N G N29223852W102494834                           FL180FL180UNLTDRR ALBUQUERQUE ARTCC        215392003
SUSAUFKZABZRZXB01050MMFR    13N G N29222780W102495965                           FL180FL180UNLTDRR ALBUQUERQUE ARTCC        215402003
SUSAUFKZABZRZXB01060MMFR    13N G N29222121W102501761                           FL180FL180UNLTDRR ALBUQUERQUE ARTCC        215412003
SUSAUFKZABZRZXB01070MMFR    13N G N29214982W102502715                           FL180FL180UNLTDRR ALBUQUERQUE ARTCC        215422003
SUSAUFKZABZRZXB01080MMFR    13N G N29212169W102501399                           FL180FL180UNLTDRR ALBUQUERQUE ARTCC        215432003
SUSAUFKZABZRZXB01090MMFR    13N G N29211759W102503289                           FL180FL180UNLTDRR ALBUQUERQUE ARTCC        215442003
SUSAUFKZABZRZXB01100MMFR    13N G N29204625W102512296                           FL180FL180UNLTDRR ALBUQUERQUE ARTCC        215452003
SUSAUFKZABZRZXB01110MMFR    13N G N29204463W102514375                           FL180FL180UNLTDRR ALBUQUERQUE ARTCC        215462003
SUSAUFKZABZRZXB01120MMFR    13N G N29205209W102522772                           FL180FL180UNLTDRR ALBUQUERQUE ARTCC        215472003
SUSAUFKZABZRZXB01130MMFR    13N G N29205296W102523286                           FL180FL180UNLTDRR ALBUQUERQUE ARTCC        215482003
SUSAUFKZABZRZXB01140MMFR    13N G N29204967W102524041                           FL180FL180UNLTDRR ALBUQUERQUE ARTCC        215492003
SUSAUFKZABZRZXB01150MMFR    13N G N29203067W102524799                           FL180FL180UNLTDRR ALBUQUERQUE ARTCC        215502003
SUSAUFKZABZRZXB01160MMFR    13N G N29200090W102524140                           FL180FL180UNLTDRR ALBUQUERQUE ARTCC        215512003
SUSAUFKZABZRZXB01170MMFR    13N G N29192868W102525280                           FL180FL180UNLTDRR ALBUQUERQUE ARTCC        215522003
SUSAUFKZABZRZXB01180MMFR    13N G N29181760W102530235                           FL180FL180UNLTDRR ALBUQUERQUE ARTCC        215532003
SUSAUFKZABZRZXB01190MMFR    13N G N29180854W102532403                           FL180FL180UNLTDRR ALBUQUERQUE ARTCC        215542003
SUSAUFKZABZRZXB01200MMFR    13N G N29172884W102530711                           FL180FL180UNLTDRR ALBUQUERQUE ARTCC        215552003
SUSAUFKZABZRZXB01210MMFR    13N G N29171065W102530903                           FL180FL180UNLTDRR ALBUQUERQUE ARTCC        215562003
SUSAUFKZABZRZXB01220MMFR    13N G N29163103W102535157                           FL180FL180UNLTDRR ALBUQUERQUE ARTCC        215572003
SUSAUFKZABZRZXB01230MMFR    13N G N29161699W102535723                           FL180FL180UNLTDRR ALBUQUERQUE ARTCC        215582003
SUSAUFKZABZRZXB01240MMFR    13N G N29160044W102534597                           FL180FL180UNLTDRR ALBUQUERQUE ARTCC        215592003
SUSAUFKZABZRZXB01250MMFR    13N G N29154887W102534880                           FL180FL180UNLTDRR ALBUQUERQUE ARTCC        215602003
SUSAUFKZABZRZXB01260MMFR    13N G N29151997W102541335                           FL180FL180UNLTDRR ALBUQUERQUE ARTCC        215612003
SUSAUFKZABZRZXB01270MMFR    13N G N29150425W102540207                           FL180FL180UNLTDRR ALBUQUERQUE ARTCC        215622003
SUSAUFKZABZRZXB01280MMFR    13N G N29143688W102531414                           FL180FL180UNLTDRR ALBUQUERQUE ARTCC        215632003
SUSAUFKZABZRZXB01290MMFR    13N G N29143194W102530549                           FL180FL180UNLTDRR ALBUQUERQUE ARTCC        215642003
SUSAUFKZABZRZXB01300MMFR    13N G N29143154W102530310                           FL180FL180UNLTDRR ALBUQUERQUE ARTCC        215652003
SUSAUFKZABZRZXB01310MMFR    13N G N29142611W102523058                           FL180FL180UNLTDRR ALBUQUERQUE ARTCC        215662003
SUSAUFKZABZRZXB01320MMFR    13N G N29141783W102521646                           FL180FL180UNLTDRR ALBUQUERQUE ARTCC        215672003
SUSAUFKZABZRZXB01330MMFR    13N G N29132075W102514919                           FL180FL180UNLTDRR ALBUQUERQUE ARTCC        215682003
SUSAUFKZABZRZXB01340MMFR    13N G N29130753W102515487                           FL180FL180UNLTDRR ALBUQUERQUE ARTCC        215692003
SUSAUFKZABZRZXB01350MMFR    13N G N29124525W102522129                           FL180FL180UNLTDRR ALBUQUERQUE ARTCC        215702003
SUSAUFKZABZRZXB01360MMFR    13N G N29121638W102531134                           FL180FL180UNLTDRR ALBUQUERQUE ARTCC        215712003
SUSAUFKZABZRZXB01370MMFR    13N G N29121227W102532831                           FL180FL180UNLTDRR ALBUQUERQUE ARTCC        215722003
SUSAUFKZABZRZXB01380MMFR    13N G N29121807W102534342                           FL180FL180UNLTDRR ALBUQUERQUE ARTCC        215732003
SUSAUFKZABZRZXB01390MMFR    13N G N29125118W102541731                           FL180FL180UNLTDRR ALBUQUERQUE ARTCC        215742003
SUSAUFKZABZRZXB01400MMFR    13N G N29125449W102542862                           FL180FL180UNLTDRR ALBUQUERQUE ARTCC        215752003
SUSAUFKZABZRZXB01410MMFR    13N G N29124623W102543810                           FL180FL180UNLTDRR ALBUQUERQUE ARTCC        215762003
SUSAUFKZABZRZXB01420MMFR    13N G N29115748W102544472                           FL180FL180UNLTDRR ALBUQUERQUE ARTCC        215772003
SUSAUFKZABZRZXB01430MMFR    13N G N29113765W102545606                           FL180FL180UNLTDRR ALBUQUERQUE ARTCC        215782003
SUSAUFKZABZRZXB01440MMFR    13N G N29112277W102545513                           FL180FL180UNLTDRR ALBUQUERQUE ARTCC        215792003
SUSAUFKZABZRZXB01450MMFR    13N G N29111616W102550458                           FL180FL180UNLTDRR ALBUQUERQUE ARTCC        215802003
SUSAUFKZABZRZXB01460MMFR    13N G N29112446W102553383                           FL180FL180UNLTDRR ALBUQUERQUE ARTCC        215812003
SUSAUFKZABZRZXB01470MMFR    13N G N29111786W102555360                           FL180FL180UNLTDRR ALBUQUERQUE ARTCC        215822003
SUSAUFKZABZRZXB01480MMFR    13N G N29103574W102564172                           FL180FL180UNLTDRR ALBUQUERQUE ARTCC        215832003
SUSAUFKZABZRZXB01490MMFR    13N G N29102585W102570908                           FL180FL180UNLTDRR ALBUQUERQUE ARTCC        215842003
SUSAUFKZABZRZXB01500MMFR    13N G N29103000W102572795                           FL180FL180UNLTDRR ALBUQUERQUE ARTCC        215852003
SUSAUFKZABZRZXB01510MMFR    13N G N29105235W102581129                           FL180FL180UNLTDRR ALBUQUERQUE ARTCC        215862003
SUSAUFKZABZRZXB01520MMFR    13N G N29105237W102584145                           FL180FL180UNLTDRR ALBUQUERQUE ARTCC        215872003
SUSAUFKZABZRZXB01530MMFR    13N G N29104081W102590974                           FL180FL180UNLTDRR ALBUQUERQUE ARTCC        215882003
SUSAUFKZABZRZXB01540MMFR    13N G N29102263W102593053                           FL180FL180UNLTDRR ALBUQUERQUE ARTCC        215892003
SUSAUFKZABZRZXB01550MMFR    13N G N29092312W102593902                           FL180FL180UNLTDRR ALBUQUERQUE ARTCC        215902003
SUSAUFKZABZRZXB01560MMFR    13N G N29085915W102595316                           FL180FL180UNLTDRR ALBUQUERQUE ARTCC        215912003
SUSAUFKZABZRZXB01570MMFR    13N G N29083767W103002238                           FL180FL180UNLTDRR ALBUQUERQUE ARTCC        215922003
SUSAUFKZABZRZXB01580MMFR    13N G N29081452W103002997                           FL180FL180UNLTDRR ALBUQUERQUE ARTCC        215932003
SUSAUFKZABZRZXB01590MMFR    13N G N29075717W103004971                           FL180FL180UNLTDRR ALBUQUERQUE ARTCC        215942003
SUSAUFKZABZRZXB01600MMFR    13N G N29073816W103005350                           FL180FL180UNLTDRR ALBUQUERQUE ARTCC        215952003
SUSAUFKZABZRZXB01610MMFR    13N G N29072328W103004971                           FL180FL180UNLTDRR ALBUQUERQUE ARTCC        215962003
SUSAUFKZABZRZXB01620MMFR    13N G N29070675W103010292                           FL180FL180UNLTDRR ALBUQUERQUE ARTCC        215972003
SUSAUFKZABZRZXB01630MMFR    13N G N29063865W103015003                           FL180FL180UNLTDRR ALBUQUERQUE ARTCC        215982003
SUSAUFKZABZRZXB01640MMFR    13N G N29061716W103015099                           FL180FL180UNLTDRR ALBUQUERQUE ARTCC        215992003
SUSAUFKZABZRZXB01650MMFR    13N G N29060394W103014725                           FL180FL180UNLTDRR ALBUQUERQUE ARTCC        216002003
SUSAUFKZABZRZXB01660MMFR    13N G N29060145W103014157                           FL180FL180UNLTDRR ALBUQUERQUE ARTCC        216012003
SUSAUFKZABZRZXB01670MMFR    13N G N29054079W103020231                           FL180FL180UNLTDRR ALBUQUERQUE ARTCC        216022003
SUSAUFKZABZRZXB01680MMFR    13N G N29053335W103022208                           FL180FL180UNLTDRR ALBUQUERQUE ARTCC        216032003
SUSAUFKZABZRZXB01690MMFR    13N G N29054411W103025974                           FL180FL180UNLTDRR ALBUQUERQUE ARTCC        216042003
SUSAUFKZABZRZXB01700MMFR    13N G N29053914W103031764                           FL180FL180UNLTDRR ALBUQUERQUE ARTCC        216052003
SUSAUFKZABZRZXB01710MMFR    13N G N29051930W103033465                           FL180FL180UNLTDRR ALBUQUERQUE ARTCC        216062003
SUSAUFKZABZRZXB01720MMFR    13N G N29052757W103040099                           FL180FL180UNLTDRR ALBUQUERQUE ARTCC        216072003
SUSAUFKZABZRZXB01730MMFR    13N G N29052674W103041799                           FL180FL180UNLTDRR ALBUQUERQUE ARTCC        216082003
SUSAUFKZABZRZXB01740MMFR    13N G N29051268W103043208                           FL180FL180UNLTDRR ALBUQUERQUE ARTCC        216092003
SUSAUFKZABZRZXB01750MMFR    13N G N29045698W103043867                           FL180FL180UNLTDRR ALBUQUERQUE ARTCC        216102003
SUSAUFKZABZRZXB01760MMFR    13N G N29043300W103043205                           FL180FL180UNLTDRR ALBUQUERQUE ARTCC        216112003
SUSAUFKZABZRZXB01770MMFR    13N G N29035167W103050591                           FL180FL180UNLTDRR ALBUQUERQUE ARTCC        216122003
SUSAUFKZABZRZXB01780MMFR    13N G N29034092W103050784                           FL180FL180UNLTDRR ALBUQUERQUE ARTCC        216132003
SUSAUFKZABZRZXB01790MMFR    13N G N29031033W103045652                           FL180FL180UNLTDRR ALBUQUERQUE ARTCC        216142003
SUSAUFKZABZRZXB01800MMFR    13N G N29030454W103050215                           FL180FL180UNLTDRR ALBUQUERQUE ARTCC        216152003
SUSAUFKZABZRZXB01810MMFR    13N G N29030702W103051251                           FL180FL180UNLTDRR ALBUQUERQUE ARTCC        216162003
SUSAUFKZABZRZXB01820MMFR    13N G N29034588W103052195                           FL180FL180UNLTDRR ALBUQUERQUE ARTCC        216172003
SUSAUFKZABZRZXB01830MMFR    13N G N29034835W103052948                           FL180FL180UNLTDRR ALBUQUERQUE ARTCC        216182003
SUSAUFKZABZRZXB01840MMFR    13N G N29032355W103054835                           FL180FL180UNLTDRR ALBUQUERQUE ARTCC        216192003
SUSAUFKZABZRZXB01850MMFR    13N G N29024054W103060299                           FL180FL180UNLTDRR ALBUQUERQUE ARTCC        216202003
SUSAUFKZABZRZXB01860MMFR    13N G N29021740W103061087                           FL180FL180UNLTDRR ALBUQUERQUE ARTCC        216212003
SUSAUFKZABZRZXB01870MMFR    13N G N29020087W103060801                           FL180FL180UNLTDRR ALBUQUERQUE ARTCC        216222003
SUSAUFKZABZRZXB01880MMFR    13N H N29012533W103054634                           FL180FL180UNLTDRR ALBUQUERQUE ARTCC        216232210
SUSAUFKZABZRZXB01890MMFR    13N G N29011210W103054634                           FL180FL180UNLTDRR ALBUQUERQUE ARTCC        216242003
SUSAUFKZABZRZXB01900MMFR    13N G N29002992W103062776                           FL180FL180UNLTDRR ALBUQUERQUE ARTCC        216252003
SUSAUFKZABZRZXB01910MMFR    13N G N28595933W103064655                           FL180FL180UNLTDRR ALBUQUERQUE ARTCC        216262003
SUSAUFKZABZRZXB01920MMFR    13N G N28592957W103064089                           FL180FL180UNLTDRR ALBUQUERQUE ARTCC        216272003
SUSAUFKZABZRZXB01930MMFR    13N G N28591551W103065498                           FL180FL180UNLTDRR ALBUQUERQUE ARTCC        216282003
SUSAUFKZABZRZXB01940MMFR    13N G N28591384W103073640                           FL180FL180UNLTDRR ALBUQUERQUE ARTCC        216292003
SUSAUFKZABZRZXB01950MMFR    13N G N28591383W103075521                           FL180FL180UNLTDRR ALBUQUERQUE ARTCC        216302003
SUSAUFKZABZRZXB01960MMFR    13N G N28583909W103083943                           FL180FL180UNLTDRR ALBUQUERQUE ARTCC        216312003
SUSAUFKZABZRZXB01970MMFR    13N G N28583246W103085825                           FL180FL180UNLTDRR ALBUQUERQUE ARTCC        216322003
SUSAUFKZABZRZXB01980MMFR    13N G N28583409W103092552                           FL180FL180UNLTDRR ALBUQUERQUE ARTCC        216332003
SUSAUFKZABZRZXB01990MMFR    13N G N28585473W103100038                           FL180FL180UNLTDRR ALBUQUERQUE ARTCC        216342003
SUSAUFKZABZRZXB02000MMFR    13N G N28590133W103102584                           FL180FL180UNLTDRR ALBUQUERQUE ARTCC        216352003
SUSAUFKZABZRZXB02010MMFR    13N G N28592440W103114584                           FL180FL180UNLTDRR ALBUQUERQUE ARTCC        216362003
SUSAUFKZABZRZXB02020MMFR    13N G N28593178W103125360                           FL180FL180UNLTDRR ALBUQUERQUE ARTCC        216372003
SUSAUFKZABZRZXB02030MMFR    13N G N28591604W103131618                           FL180FL180UNLTDRR ALBUQUERQUE ARTCC        216382003
SUSAUFKZABZRZXB02040MMFR    13N G N28593503W103134538                           FL180FL180UNLTDRR ALBUQUERQUE ARTCC        216392003
SUSAUFKZABZRZXB02050MMFR    13N G N28592839W103135856                           FL180FL180UNLTDRR ALBUQUERQUE ARTCC        216402003
SUSAUFKZABZRZXB02060MMFR    13N G N28585776W103142954                           FL180FL180UNLTDRR ALBUQUERQUE ARTCC        216412003
SUSAUFKZABZRZXB02070MMFR    13N G N28590601W103144555                           FL180FL180UNLTDRR ALBUQUERQUE ARTCC        216422003
SUSAUFKZABZRZXB02080MMFR    13N G N28595388W103154590                           FL180FL180UNLTDRR ALBUQUERQUE ARTCC        216432003
SUSAUFKZABZRZXB02090MMFR    13N G N28595551W103160097                           FL180FL180UNLTDRR ALBUQUERQUE ARTCC        216442003
SUSAUFKZABZRZXB02100MMFR    13N G N28591250W103161597                           FL180FL180UNLTDRR ALBUQUERQUE ARTCC        216452003
SUSAUFKZABZRZXB02110MMFR    13N G N28590503W103163190                           FL180FL180UNLTDRR ALBUQUERQUE ARTCC        216462003
SUSAUFKZABZRZXB02120MMFR    13N G N28590584W103164228                           FL180FL180UNLTDRR ALBUQUERQUE ARTCC        216472003
SUSAUFKZABZRZXB02130MMFR    13N G N28592075W103165665                           FL180FL180UNLTDRR ALBUQUERQUE ARTCC        216482003
SUSAUFKZABZRZXB02140MMFR    13N G N28594798W103170025                           FL180FL180UNLTDRR ALBUQUERQUE ARTCC        216492003
SUSAUFKZABZRZXB02150MMFR    13N G N28595707W103170220                           FL180FL180UNLTDRR ALBUQUERQUE ARTCC        216502003
SUSAUFKZABZRZXB02160MMFR    13N G N29000117W103171818                           FL180FL180UNLTDRR ALBUQUERQUE ARTCC        216512003
SUSAUFKZABZRZXB02170MMFR    13N G N29001603W103173796                           FL180FL180UNLTDRR ALBUQUERQUE ARTCC        216522003
SUSAUFKZABZRZXB02180MMFR    13N G N29001013W103183912                           FL180FL180UNLTDRR ALBUQUERQUE ARTCC        216532003
SUSAUFKZABZRZXB02190MMFR    13N G N29002499W103185423                           FL180FL180UNLTDRR ALBUQUERQUE ARTCC        216542003
SUSAUFKZABZRZXB02200MMFR    13N G N29003657W103184956                           FL180FL180UNLTDRR ALBUQUERQUE ARTCC        216552003
SUSAUFKZABZRZXB02210MMFR    13N G N29004818W103182701                           FL180FL180UNLTDRR ALBUQUERQUE ARTCC        216562003
SUSAUFKZABZRZXB02220MMFR    13N G N29010722W103181666                           FL180FL180UNLTDRR ALBUQUERQUE ARTCC        216572003
SUSAUFKZABZRZXB02230MMFR    13N G N29012044W103181954                           FL180FL180UNLTDRR ALBUQUERQUE ARTCC        216582003
SUSAUFKZABZRZXB02240MMFR    13N G N29012621W103183086                           FL180FL180UNLTDRR ALBUQUERQUE ARTCC        216592003
SUSAUFKZABZRZXB02250MMFR    13N G N29005633W103193197                           FL180FL180UNLTDRR ALBUQUERQUE ARTCC        216602003
SUSAUFKZABZRZXB02260MMFR    13N G N29010040W103200116                           FL180FL180UNLTDRR ALBUQUERQUE ARTCC        216612003
SUSAUFKZABZRZXB02270MMFR    13N G N29010864W103201627                           FL180FL180UNLTDRR ALBUQUERQUE ARTCC        216622003
SUSAUFKZABZRZXB02280MMFR    13N G N29012434W103202385                           FL180FL180UNLTDRR ALBUQUERQUE ARTCC        216632003
SUSAUFKZABZRZXB02290MMFR    13N G N29013261W103202009                           FL180FL180UNLTDRR ALBUQUERQUE ARTCC        216642003
SUSAUFKZABZRZXB02300MMFR    13N G N29015087W103194155                           FL180FL180UNLTDRR ALBUQUERQUE ARTCC        216652003
SUSAUFKZABZRZXB02310MMFR    13N G N29015962W103193795                           FL180FL180UNLTDRR ALBUQUERQUE ARTCC        216662003
SUSAUFKZABZRZXB02320MMFR    13N G N29020908W103193408                           FL180FL180UNLTDRR ALBUQUERQUE ARTCC        216672003
SUSAUFKZABZRZXB02330MMFR    13N G N29022477W103194446                           FL180FL180UNLTDRR ALBUQUERQUE ARTCC        216682003
SUSAUFKZABZRZXB02340MMFR    13N G N29024039W103202687                           FL180FL180UNLTDRR ALBUQUERQUE ARTCC        216692003
SUSAUFKZABZRZXB02350MMFR    13N G N29023870W103204102                           FL180FL180UNLTDRR ALBUQUERQUE ARTCC        216702003
SUSAUFKZABZRZXB02360MMFR    13N G N29022959W103205225                           FL180FL180UNLTDRR ALBUQUERQUE ARTCC        216712003
SUSAUFKZABZRZXB02370MMFR    13N G N29013748W103210249                           FL180FL180UNLTDRR ALBUQUERQUE ARTCC        216722003
SUSAUFKZABZRZXB02380MMFR    13N G N29011761W103211653                           FL180FL180UNLTDRR ALBUQUERQUE ARTCC        216732003
SUSAUFKZABZRZXB02390MMFR    13N G N29010601W103212875                           FL180FL180UNLTDRR ALBUQUERQUE ARTCC        216742003
SUSAUFKZABZRZXB02400MMFR    13N G N29010350W103214474                           FL180FL180UNLTDRR ALBUQUERQUE ARTCC        216752003
SUSAUFKZABZRZXB02410MMFR    13N G N29011666W103221305                           FL180FL180UNLTDRR ALBUQUERQUE ARTCC        216762003
SUSAUFKZABZRZXB02420MMFR    13N G N29012151W103230387                           FL180FL180UNLTDRR ALBUQUERQUE ARTCC        216772003
SUSAUFKZABZRZXB02430MMFR    13N G N29015456W103231249                           FL180FL180UNLTDRR ALBUQUERQUE ARTCC        216782003
SUSAUFKZABZRZXB02440MMFR    13N G N29015950W103232284                           FL180FL180UNLTDRR ALBUQUERQUE ARTCC        216792003
SUSAUFKZABZRZXB02450MMFR    13N G N29014788W103233976                           FL180FL180UNLTDRR ALBUQUERQUE ARTCC        216802003
SUSAUFKZABZRZXB02460MMFR    13N G N29015115W103235767                           FL180FL180UNLTDRR ALBUQUERQUE ARTCC        216812003
SUSAUFKZABZRZXB02470MMFR    13N G N29021589W103242223                           FL180FL180UNLTDRR ALBUQUERQUE ARTCC        216822003
SUSAUFKZABZRZXB02480MMFR    13N G N29021416W103245329                           FL180FL180UNLTDRR ALBUQUERQUE ARTCC        216832003
SUSAUFKZABZRZXB02490MMFR    13N G N29022652W103250933                           FL180FL180UNLTDRR ALBUQUERQUE ARTCC        216842003
SUSAUFKZABZRZXB02500MMFR    13N G N29022827W103253495                           FL180FL180UNLTDRR ALBUQUERQUE ARTCC        216852003
SUSAUFKZABZRZXB02510MMFR    13N G N29022890W103254418                           FL180FL180UNLTDRR ALBUQUERQUE ARTCC        216862003
SUSAUFKZABZRZXB02520MMFR    13N G N29023880W103255360                           FL180FL180UNLTDRR ALBUQUERQUE ARTCC        216872003
SUSAUFKZABZRZXB02530MMFR    13N G N29031434W103255470                           FL180FL180UNLTDRR ALBUQUERQUE ARTCC        216882003
SUSAUFKZABZRZXB02540MMFR    13N G N29033075W103264093                           FL180FL180UNLTDRR ALBUQUERQUE ARTCC        216892003
SUSAUFKZABZRZXB02550MMFR    13N G N29034394W103265510                           FL180FL180UNLTDRR ALBUQUERQUE ARTCC        216902003
SUSAUFKZABZRZXB02560MMFR    13N G N29040872W103270084                           FL180FL180UNLTDRR ALBUQUERQUE ARTCC        216912003
SUSAUFKZABZRZXB02570MMFR    13N G N29041448W103271405                           FL180FL180UNLTDRR ALBUQUERQUE ARTCC        216922003
SUSAUFKZABZRZXB02580MMFR    13N G N29041278W103272814                           FL180FL180UNLTDRR ALBUQUERQUE ARTCC        216932003
SUSAUFKZABZRZXB02590MMFR    13N G N29035704W103274036                           FL180FL180UNLTDRR ALBUQUERQUE ARTCC        216942003
SUSAUFKZABZRZXB02600MMFR    13N G N29035533W103275923                           FL180FL180UNLTDRR ALBUQUERQUE ARTCC        216952003
SUSAUFKZABZRZXB02610MMFR    13N G N29040438W103281338                           FL180FL180UNLTDRR ALBUQUERQUE ARTCC        216962003
SUSAUFKZABZRZXB02620MMFR    13N G N29045397W103281923                           FL180FL180UNLTDRR ALBUQUERQUE ARTCC        216972003
SUSAUFKZABZRZXB02630MMFR    13N G N29054838W103291031                           FL180FL180UNLTDRR ALBUQUERQUE ARTCC        216982003
SUSAUFKZABZRZXB02640MMFR    13N G N29061561W103292644                           FL180FL180UNLTDRR ALBUQUERQUE ARTCC        216992003
SUSAUFKZABZRZXB02650MMFR    13N G N29062219W103293778                           FL180FL180UNLTDRR ALBUQUERQUE ARTCC        217002003
SUSAUFKZABZRZXB02660MMFR    13N G N29062457W103300791                           FL180FL180UNLTDRR ALBUQUERQUE ARTCC        217012003
SUSAUFKZABZRZXB02670MMFR    13N G N29063199W103301360                           FL180FL180UNLTDRR ALBUQUERQUE ARTCC        217022003
SUSAUFKZABZRZXB02680MMFR    13N G N29065020W103300714                           FL180FL180UNLTDRR ALBUQUERQUE ARTCC        217032003
SUSAUFKZABZRZXB02690MMFR    13N G N29070010W103301376                           FL180FL180UNLTDRR ALBUQUERQUE ARTCC        217042003
SUSAUFKZABZRZXB02700MMFR    13N G N29070092W103301967                           FL180FL180UNLTDRR ALBUQUERQUE ARTCC        217052003
SUSAUFKZABZRZXB02710MMFR    13N G N29071060W103312918                           FL180FL180UNLTDRR ALBUQUERQUE ARTCC        217062003
SUSAUFKZABZRZXB02720MMFR    13N G N29074204W103312086                           FL180FL180UNLTDRR ALBUQUERQUE ARTCC        217072003
SUSAUFKZABZRZXB02730MMFR    13N G N29080021W103312663                           FL180FL180UNLTDRR ALBUQUERQUE ARTCC        217082003
SUSAUFKZABZRZXB02740MMFR    13N G N29082818W103320725                           FL180FL180UNLTDRR ALBUQUERQUE ARTCC        217092003
SUSAUFKZABZRZXB02750MMFR    13N G N29083791W103330386                           FL180FL180UNLTDRR ALBUQUERQUE ARTCC        217102003
SUSAUFKZABZRZXB02760MMFR    13N G N29091343W103330968                           FL180FL180UNLTDRR ALBUQUERQUE ARTCC        217112003
SUSAUFKZABZRZXB02770MMFR    13N G N29090489W103342408                           FL180FL180UNLTDRR ALBUQUERQUE ARTCC        217122003
SUSAUFKZABZRZXB02780MMFR    13N G N29085575W103343914                           FL180FL180UNLTDRR ALBUQUERQUE ARTCC        217132003
SUSAUFKZABZRZXB02790MMFR    13N G N29085319W103350081                           FL180FL180UNLTDRR ALBUQUERQUE ARTCC        217142003
SUSAUFKZABZRZXB02800MMFR    13N G N29090700W103360214                           FL180FL180UNLTDRR ALBUQUERQUE ARTCC        217152003
SUSAUFKZABZRZXB02810MMFR    13N G N29094403W103364570                           FL180FL180UNLTDRR ALBUQUERQUE ARTCC        217162003
SUSAUFKZABZRZXB02820MMFR    13N G N29093979W103371393                           FL180FL180UNLTDRR ALBUQUERQUE ARTCC        217172003
SUSAUFKZABZRZXB02830MMFR    13N G N29094215W103374225                           FL180FL180UNLTDRR ALBUQUERQUE ARTCC        217182003
SUSAUFKZABZRZXB02840MMFR    13N G N29092801W103380480                           FL180FL180UNLTDRR ALBUQUERQUE ARTCC        217192003
SUSAUFKZABZRZXB02850MMFR    13N G N29093203W103383125                           FL180FL180UNLTDRR ALBUQUERQUE ARTCC        217202003
SUSAUFKZABZRZXB02860MMFR    13N G N29092034W103390039                           FL180FL180UNLTDRR ALBUQUERQUE ARTCC        217212003
SUSAUFKZABZRZXB02870MMFR    13N G N29095746W103391852                           FL180FL180UNLTDRR ALBUQUERQUE ARTCC        217222003
SUSAUFKZABZRZXB02880MMFR    13N G N29100813W103393552                           FL180FL180UNLTDRR ALBUQUERQUE ARTCC        217232003
SUSAUFKZABZRZXB02890MMFR    13N G N29103577W103412129                           FL180FL180UNLTDRR ALBUQUERQUE ARTCC        217242003
SUSAUFKZABZRZXB02900MMFR    13N G N29103730W103414867                           FL180FL180UNLTDRR ALBUQUERQUE ARTCC        217252003
SUSAUFKZABZRZXB02910MMFR    13N G N29110031W103421803                           FL180FL180UNLTDRR ALBUQUERQUE ARTCC        217262003
SUSAUFKZABZRZXB02920MMFR    13N G N29110022W103423688                           FL180FL180UNLTDRR ALBUQUERQUE ARTCC        217272003
SUSAUFKZABZRZXB02930MMFR    13N G N29104278W103425657                           FL180FL180UNLTDRR ALBUQUERQUE ARTCC        217282003
SUSAUFKZABZRZXB02940MMFR    13N G N29114126W103434126                           FL180FL180UNLTDRR ALBUQUERQUE ARTCC        217292003
SUSAUFKZABZRZXB02950MMFR    13N G N29122070W103443056                           FL180FL180UNLTDRR ALBUQUERQUE ARTCC        217302003
SUSAUFKZABZRZXB02960MMFR    13N G N29125623W103443459                           FL180FL180UNLTDRR ALBUQUERQUE ARTCC        217312003
SUSAUFKZABZRZXB02970MMFR    13N G N29130609W103444596                           FL180FL180UNLTDRR ALBUQUERQUE ARTCC        217322003
SUSAUFKZABZRZXB02980MMFR    13N G N29130187W103450291                           FL180FL180UNLTDRR ALBUQUERQUE ARTCC        217332003
SUSAUFKZABZRZXB02990MMFR    13N G N29130425W103452178                           FL180FL180UNLTDRR ALBUQUERQUE ARTCC        217342003
SUSAUFKZABZRZXB03000MMFR    13N G N29131331W103452939                           FL180FL180UNLTDRR ALBUQUERQUE ARTCC        217352003
SUSAUFKZABZRZXB03010MMFR    13N G N29133071W103452197                           FL180FL180UNLTDRR ALBUQUERQUE ARTCC        217362003
SUSAUFKZABZRZXB03020MMFR    13N G N29133977W103452769                           FL180FL180UNLTDRR ALBUQUERQUE ARTCC        217372003
SUSAUFKZABZRZXB03030MMFR    13N G N29134551W103453810                           FL180FL180UNLTDRR ALBUQUERQUE ARTCC        217382003
SUSAUFKZABZRZXB03040MMFR    13N G N29134380W103454752                           FL180FL180UNLTDRR ALBUQUERQUE ARTCC        217392003
SUSAUFKZABZRZXB03050MMFR    13N G N29130648W103461180                           FL180FL180UNLTDRR ALBUQUERQUE ARTCC        217402003
SUSAUFKZABZRZXB03060MMFR    13N G N29130394W103462501                           FL180FL180UNLTDRR ALBUQUERQUE ARTCC        217412003
SUSAUFKZABZRZXB03070MMFR    13N G N29132697W103464684                           FL180FL180UNLTDRR ALBUQUERQUE ARTCC        217422003
SUSAUFKZABZRZXB03080MMFR    13N G N29135759W103464044                           FL180FL180UNLTDRR ALBUQUERQUE ARTCC        217432003
SUSAUFKZABZRZXB03090MMFR    13N G N29141822W103464627                           FL180FL180UNLTDRR ALBUQUERQUE ARTCC        217442003
SUSAUFKZABZRZXB03100MMFR    13N G N29145139W103462668                           FL180FL180UNLTDRR ALBUQUERQUE ARTCC        217452003
SUSAUFKZABZRZXB03110MMFR    13N G N29153919W103465629                           FL180FL180UNLTDRR ALBUQUERQUE ARTCC        217462003
SUSAUFKZABZRZXB03120MMFR    13N G N29154407W103471044                           FL180FL180UNLTDRR ALBUQUERQUE ARTCC        217472003
SUSAUFKZABZRZXB03130MMFR    13N G N29152653W103474523                           FL180FL180UNLTDRR ALBUQUERQUE ARTCC        217482003
SUSAUFKZABZRZXB03140MMFR    13N G N29152888W103480979                           FL180FL180UNLTDRR ALBUQUERQUE ARTCC        217492003
SUSAUFKZABZRZXB03150MMFR    13N G N29160847W103482610                           FL180FL180UNLTDRR ALBUQUERQUE ARTCC        217502003
SUSAUFKZABZRZXB03160MMFR    13N G N29161503W103483561                           FL180FL180UNLTDRR ALBUQUERQUE ARTCC        217512003
SUSAUFKZABZRZXB03170MMFR    13N G N29161822W103485736                           FL180FL180UNLTDRR ALBUQUERQUE ARTCC        217522003
SUSAUFKZABZRZXB03180MMFR    13N G N29160573W103491326                           FL180FL180UNLTDRR ALBUQUERQUE ARTCC        217532003
SUSAUFKZABZRZXB03190MMFR    13N G N29160644W103493589                           FL180FL180UNLTDRR ALBUQUERQUE ARTCC        217542003
SUSAUFKZABZRZXB03200MMFR    13N G N29163676W103502333                           FL180FL180UNLTDRR ALBUQUERQUE ARTCC        217552003
SUSAUFKZABZRZXB03210MMFR    13N G N29164473W103511436                           FL180FL180UNLTDRR ALBUQUERQUE ARTCC        217562003
SUSAUFKZABZRZXB03220MMFR    13N G N29164365W103515965                           FL180FL180UNLTDRR ALBUQUERQUE ARTCC        217572003
SUSAUFKZABZRZXB03230MMFR    13N G N29165921W103522525                           FL180FL180UNLTDRR ALBUQUERQUE ARTCC        217582003
SUSAUFKZABZRZXB03240MMFR    13N G N29165996W103523753                           FL180FL180UNLTDRR ALBUQUERQUE ARTCC        217592003
SUSAUFKZABZRZXB03250MMFR    13N G N29164160W103530664                           FL180FL180UNLTDRR ALBUQUERQUE ARTCC        217602003
SUSAUFKZABZRZXB03260MMFR    13N G N29164483W103531985                           FL180FL180UNLTDRR ALBUQUERQUE ARTCC        217612003
SUSAUFKZABZRZXB03270MMFR    13N G N29170697W103534932                           FL180FL180UNLTDRR ALBUQUERQUE ARTCC        217622003
SUSAUFKZABZRZXB03280MMFR    13N G N29170844W103542049                           FL180FL180UNLTDRR ALBUQUERQUE ARTCC        217632003
SUSAUFKZABZRZXB03290MMFR    13N G N29170088W103543928                           FL180FL180UNLTDRR ALBUQUERQUE ARTCC        217642003
SUSAUFKZABZRZXB03300MMFR    13N G N29170241W103550101                           FL180FL180UNLTDRR ALBUQUERQUE ARTCC        217652003
SUSAUFKZABZRZXB03310MMFR    13N G N29172632W103550969                           FL180FL180UNLTDRR ALBUQUERQUE ARTCC        217662003
SUSAUFKZABZRZXB03320MMFR    13N G N29173533W103552394                           FL180FL180UNLTDRR ALBUQUERQUE ARTCC        217672003
SUSAUFKZABZRZXB03330MMFR    13N G N29172927W103560824                           FL180FL180UNLTDRR ALBUQUERQUE ARTCC        217682003
SUSAUFKZABZRZXB03340MMFR    13N G N29174711W103570312                           FL180FL180UNLTDRR ALBUQUERQUE ARTCC        217692003
SUSAUFKZABZRZXB03350MMFR    13N G N29173664W103582802                           FL180FL180UNLTDRR ALBUQUERQUE ARTCC        217702003
SUSAUFKZABZRZXB03360MMFR    13N G N29174075W103583955                           FL180FL180UNLTDRR ALBUQUERQUE ARTCC        217712003
SUSAUFKZABZRZXB03370MMFR    13N G N29180504W103594753                           FL180FL180UNLTDRR ALBUQUERQUE ARTCC        217722003
SUSAUFKZABZRZXB03380MMFR    13N G N29191507W104022208                           FL180FL180UNLTDRR ALBUQUERQUE ARTCC        217732003
SUSAUFKZABZRZXB03390MMFR    13N G N29194039W104030482                           FL180FL180UNLTDRR ALBUQUERQUE ARTCC        217742003
SUSAUFKZABZRZXB03400MMFR    13N G N29200098W104031449                           FL180FL180UNLTDRR ALBUQUERQUE ARTCC        217752003
SUSAUFKZABZRZXB03410MMFR    13N G N29202953W104040854                           FL180FL180UNLTDRR ALBUQUERQUE ARTCC        217762003
SUSAUFKZABZRZXB03420MMFR    13N G N29203177W104044257                           FL180FL180UNLTDRR ALBUQUERQUE ARTCC        217772003
SUSAUFKZABZRZXB03430MMFR    13N G N29213994W104054085                           FL180FL180UNLTDRR ALBUQUERQUE ARTCC        217782003
SUSAUFKZABZRZXB03440MMFR    13N G N29221522W104061711                           FL180FL180UNLTDRR ALBUQUERQUE ARTCC        217792003
SUSAUFKZABZRZXB03450MMFR    13N G N29221572W104065957                           FL180FL180UNLTDRR ALBUQUERQUE ARTCC        217802003
SUSAUFKZABZRZXB03460MMFR    13N G N29224124W104071404                           FL180FL180UNLTDRR ALBUQUERQUE ARTCC        217812003
SUSAUFKZABZRZXB03470MMFR    13N G N29224993W104080700                           FL180FL180UNLTDRR ALBUQUERQUE ARTCC        217822003
SUSAUFKZABZRZXB03480MMFR    13N G N29232340W104090028                           FL180FL180UNLTDRR ALBUQUERQUE ARTCC        217832003
SUSAUFKZABZRZXB03490MMFR    13N G N29233302W104093818                           FL180FL180UNLTDRR ALBUQUERQUE ARTCC        217842003
SUSAUFKZABZRZXB03500MMFR    13N G N29234289W104094488                           FL180FL180UNLTDRR ALBUQUERQUE ARTCC        217852003
SUSAUFKZABZRZXB03510MMFR    13N G N29240767W104094703                           FL180FL180UNLTDRR ALBUQUERQUE ARTCC        217862003
SUSAUFKZABZRZXB03520MMFR    13N G N29244043W104102518                           FL180FL180UNLTDRR ALBUQUERQUE ARTCC        217872003
SUSAUFKZABZRZXB03530MMFR    13N G N29245524W104103386                           FL180FL180UNLTDRR ALBUQUERQUE ARTCC        217882003
SUSAUFKZABZRZXB03540MMFR    13N G N29252906W104104177                           FL180FL180UNLTDRR ALBUQUERQUE ARTCC        217892003
SUSAUFKZABZRZXB03550MMFR    13N G N29260018W104111802                           FL180FL180UNLTDRR ALBUQUERQUE ARTCC        217902003
SUSAUFKZABZRZXB03560MMFR    13N G N29262325W104112772                           FL180FL180UNLTDRR ALBUQUERQUE ARTCC        217912003
SUSAUFKZABZRZXB03570MMFR    13N G N29263030W104113879                           FL180FL180UNLTDRR ALBUQUERQUE ARTCC        217922003
SUSAUFKZABZRZXB03580MMFR    13N G N29270324W104123056                           FL180FL180UNLTDRR ALBUQUERQUE ARTCC        217932003
SUSAUFKZABZRZXB03590MMFR    13N G N29271640W104123822                           FL180FL180UNLTDRR ALBUQUERQUE ARTCC        217942003
SUSAUFKZABZRZXB03600MMFR    13N G N29281935W104122193                           FL180FL180UNLTDRR ALBUQUERQUE ARTCC        217952003
SUSAUFKZABZRZXB03610MMFR    13N G N29284248W104122408                           FL180FL180UNLTDRR ALBUQUERQUE ARTCC        217962003
SUSAUFKZABZRZXB03620MMFR    13N G N29285398W104123270                           FL180FL180UNLTDRR ALBUQUERQUE ARTCC        217972003
SUSAUFKZABZRZXB03630MMFR    13N G N29284685W104133505                           FL180FL180UNLTDRR ALBUQUERQUE ARTCC        217982003
SUSAUFKZABZRZXB03640MMFR    13N G N29292979W104134021                           FL180FL180UNLTDRR ALBUQUERQUE ARTCC        217992003
SUSAUFKZABZRZXB03650MMFR    13N G N29294702W104135557                           FL180FL180UNLTDRR ALBUQUERQUE ARTCC        218002003
SUSAUFKZABZRZXB03660MMFR    13N G N29295593W104141740                           FL180FL180UNLTDRR ALBUQUERQUE ARTCC        218012003
SUSAUFKZABZRZXB03670MMFR    13N G N29301555W104144223                           FL180FL180UNLTDRR ALBUQUERQUE ARTCC        218022003
SUSAUFKZABZRZXB03680MMFR    13N G N29301943W104151159                           FL180FL180UNLTDRR ALBUQUERQUE ARTCC        218032003
SUSAUFKZABZRZXB03690MMFR    13N G N29304154W104153738                           FL180FL180UNLTDRR ALBUQUERQUE ARTCC        218042003
SUSAUFKZABZRZXB03700MMFR    13N G N29305920W104163624                           FL180FL180UNLTDRR ALBUQUERQUE ARTCC        218052003
SUSAUFKZABZRZXB03710MMFR    13N G N29305501W104164374                           FL180FL180UNLTDRR ALBUQUERQUE ARTCC        218062003
SUSAUFKZABZRZXB03720MMFR    13N G N29310062W104170371                           FL180FL180UNLTDRR ALBUQUERQUE ARTCC        218072003
SUSAUFKZABZRZXB03730MMFR    13N G N29311368W104172277                           FL180FL180UNLTDRR ALBUQUERQUE ARTCC        218082003
SUSAUFKZABZRZXB03740MMFR    13N G N29312015W104173796                           FL180FL180UNLTDRR ALBUQUERQUE ARTCC        218092003
SUSAUFKZABZRZXB03750MMFR    13N G N29311984W104181295                           FL180FL180UNLTDRR ALBUQUERQUE ARTCC        218102003
SUSAUFKZABZRZXB03760MMFR    13N G N29314535W104182654                           FL180FL180UNLTDRR ALBUQUERQUE ARTCC        218112003
SUSAUFKZABZRZXB03770MMFR    13N G N29314594W104185206                           FL180FL180UNLTDRR ALBUQUERQUE ARTCC        218122003
SUSAUFKZABZRZXB03780MMFR    13N G N29311690W104190401                           FL180FL180UNLTDRR ALBUQUERQUE ARTCC        218132003
SUSAUFKZABZRZXB03790MMFR    13N G N29310984W104195405                           FL180FL180UNLTDRR ALBUQUERQUE ARTCC        218142003
SUSAUFKZABZRZXB03800MMFR    13N G N29312950W104201325                           FL180FL180UNLTDRR ALBUQUERQUE ARTCC        218152003
SUSAUFKZABZRZXB03810MMFR    13N G N29313333W104204634                           FL180FL180UNLTDRR ALBUQUERQUE ARTCC        218162003
SUSAUFKZABZRZXB03820MMFR    13N G N29321376W104205445                           FL180FL180UNLTDRR ALBUQUERQUE ARTCC        218172003
SUSAUFKZABZRZXB03830MMFR    13N G N29321859W104210774                           FL180FL180UNLTDRR ALBUQUERQUE ARTCC        218182003
SUSAUFKZABZRZXB03840MMFR    13N G N29320862W104211332                           FL180FL180UNLTDRR ALBUQUERQUE ARTCC        218192003
SUSAUFKZABZRZXB03850MMFR    13N G N29320761W104213408                           FL180FL180UNLTDRR ALBUQUERQUE ARTCC        218202003
SUSAUFKZABZRZXB03860MMFR    13N G N29322639W104215894                           FL180FL180UNLTDRR ALBUQUERQUE ARTCC        218212003
SUSAUFKZABZRZXB03870MMFR    13N G N29322437W104223676                           FL180FL180UNLTDRR ALBUQUERQUE ARTCC        218222003
SUSAUFKZABZRZXB03880MMFR    13N G N29325497W104223525                           FL180FL180UNLTDRR ALBUQUERQUE ARTCC        218232003
SUSAUFKZABZRZXB03890MMFR    13N G N29330071W104224005                           FL180FL180UNLTDRR ALBUQUERQUE ARTCC        218242003
SUSAUFKZABZRZXB03900MMFR    13N G N29330211W104230653                           FL180FL180UNLTDRR ALBUQUERQUE ARTCC        218252003
SUSAUFKZABZRZXB03910MMFR    13N G N29330943W104231897                           FL180FL180UNLTDRR ALBUQUERQUE ARTCC        218262003
SUSAUFKZABZRZXB03920MMFR    13N G N29331879W104232180                           FL180FL180UNLTDRR ALBUQUERQUE ARTCC        218272003
SUSAUFKZABZRZXB03930MMFR    13N G N29335806W104233380                           FL180FL180UNLTDRR ALBUQUERQUE ARTCC        218282003
SUSAUFKZABZRZXB03940MMFR    13N G N29342408W104241764                           FL180FL180UNLTDRR ALBUQUERQUE ARTCC        218292003
SUSAUFKZABZRZXB03950MMFR    13N G N29360587W104265419                           FL180FL180UNLTDRR ALBUQUERQUE ARTCC        218302003
SUSAUFKZABZRZXB03960MMFR    13N G N29355734W104272059                           FL180FL180UNLTDRR ALBUQUERQUE ARTCC        218312003
SUSAUFKZABZRZXB03970MMFR    13N G N29355973W104272913                           FL180FL180UNLTDRR ALBUQUERQUE ARTCC        218322003
SUSAUFKZABZRZXB03980MMFR    13N G N29360797W104273212                           FL180FL180UNLTDRR ALBUQUERQUE ARTCC        218332003
SUSAUFKZABZRZXB03990MMFR    13N G N29362622W104272575                           FL180FL180UNLTDRR ALBUQUERQUE ARTCC        218342003
SUSAUFKZABZRZXB04000MMFR    13N G N29363601W104273811                           FL180FL180UNLTDRR ALBUQUERQUE ARTCC        218352003
SUSAUFKZABZRZXB04010MMFR    13N G N29363669W104275333                           FL180FL180UNLTDRR ALBUQUERQUE ARTCC        218362003
SUSAUFKZABZRZXB04020MMFR    13N G N29365308W104280679                           FL180FL180UNLTDRR ALBUQUERQUE ARTCC        218372003
SUSAUFKZABZRZXB04030MMFR    13N G N29372111W104281379                           FL180FL180UNLTDRR ALBUQUERQUE ARTCC        218382003
SUSAUFKZABZRZXB04040MMFR    13N G N29373175W104282434                           FL180FL180UNLTDRR ALBUQUERQUE ARTCC        218392003
SUSAUFKZABZRZXB04050MMFR    13N G N29373892W104285095                           FL180FL180UNLTDRR ALBUQUERQUE ARTCC        218402003
SUSAUFKZABZRZXB04060MMFR    13N G N29381070W104293495                           FL180FL180UNLTDRR ALBUQUERQUE ARTCC        218412003
SUSAUFKZABZRZXB04070MMFR    13N G N29381130W104295673                           FL180FL180UNLTDRR ALBUQUERQUE ARTCC        218422003
SUSAUFKZABZRZXB04080MMFR    13N G N29380456W104300989                           FL180FL180UNLTDRR ALBUQUERQUE ARTCC        218432003
SUSAUFKZABZRZXB04090MMFR    13N G N29380691W104302225                           FL180FL180UNLTDRR ALBUQUERQUE ARTCC        218442003
SUSAUFKZABZRZXB04100MMFR    13N G N29381867W104303376                           FL180FL180UNLTDRR ALBUQUERQUE ARTCC        218452003
SUSAUFKZABZRZXB04110MMFR    13N G N29382164W104303669                           FL180FL180UNLTDRR ALBUQUERQUE ARTCC        218462003
SUSAUFKZABZRZXB04120MMFR    13N G N29383498W104302549                           FL180FL180UNLTDRR ALBUQUERQUE ARTCC        218472003
SUSAUFKZABZRZXB04130MMFR    13N G N29384884W104304367                           FL180FL180UNLTDRR ALBUQUERQUE ARTCC        218482003
SUSAUFKZABZRZXB04140MMFR    13N G N29400274W104313014                           FL180FL180UNLTDRR ALBUQUERQUE ARTCC        218492003
SUSAUFKZABZRZXB04150MMFR    13N G N29400079W104315761                           FL180FL180UNLTDRR ALBUQUERQUE ARTCC        218502003
SUSAUFKZABZRZXB04160MMFR    13N G N29402880W104320651                           FL180FL180UNLTDRR ALBUQUERQUE ARTCC        218512003
SUSAUFKZABZRZXB04170MMFR    13N G N29404925W104322669                           FL180FL180UNLTDRR ALBUQUERQUE ARTCC        218522003
SUSAUFKZABZRZXB04180MMFR    13N G N29405839W104322208                           FL180FL180UNLTDRR ALBUQUERQUE ARTCC        218532003
SUSAUFKZABZRZXB04190MMFR    13N G N29410616W104315096                           FL180FL180UNLTDRR ALBUQUERQUE ARTCC        218542003
SUSAUFKZABZRZXB04200MMFR    13N G N29411448W104314536                           FL180FL180UNLTDRR ALBUQUERQUE ARTCC        218552003
SUSAUFKZABZRZXB04210MMFR    13N G N29412270W104314929                           FL180FL180UNLTDRR ALBUQUERQUE ARTCC        218562003
SUSAUFKZABZRZXB04220MMFR    13N G N29414632W104322277                           FL180FL180UNLTDRR ALBUQUERQUE ARTCC        218572003
SUSAUFKZABZRZXB04230MMFR    13N G N29420857W104322878                           FL180FL180UNLTDRR ALBUQUERQUE ARTCC        218582003
SUSAUFKZABZRZXB04240MMFR    13N G N29423918W104322540                           FL180FL180UNLTDRR ALBUQUERQUE ARTCC        218592003
SUSAUFKZABZRZXB04250MMFR    13N G N29430953W104324765                           FL180FL180UNLTDRR ALBUQUERQUE ARTCC        218602003
SUSAUFKZABZRZXB04260MMFR    13N G N29434174W104324905                           FL180FL180UNLTDRR ALBUQUERQUE ARTCC        218612003
SUSAUFKZABZRZXB04270MMFR    13N G N29440049W104331396                           FL180FL180UNLTDRR ALBUQUERQUE ARTCC        218622003
SUSAUFKZABZRZXB04280MMFR    13N G N29440396W104331278                           FL180FL180UNLTDRR ALBUQUERQUE ARTCC        218632003
SUSAUFKZABZRZXB04290MMFR    13N G N29442206W104330669                           FL180FL180UNLTDRR ALBUQUERQUE ARTCC        218642003
SUSAUFKZABZRZXB04300MMFR    13N G N29444930W104332893                           FL180FL180UNLTDRR ALBUQUERQUE ARTCC        218652003
SUSAUFKZABZRZXB04310MMFR    13N G N29452187W104335494                           FL180FL180UNLTDRR ALBUQUERQUE ARTCC        218662003
SUSAUFKZABZRZXB04320MMFR    13N G N29455922W104333940                           FL180FL180UNLTDRR ALBUQUERQUE ARTCC        218672003
SUSAUFKZABZRZXB04330MMFR    13N G N29461489W104334242                           FL180FL180UNLTDRR ALBUQUERQUE ARTCC        218682003
SUSAUFKZABZRZXB04340MMFR    13N G N29463621W104335794                           FL180FL180UNLTDRR ALBUQUERQUE ARTCC        218692003
SUSAUFKZABZRZXB04350MMFR    13N G N29470396W104343054                           FL180FL180UNLTDRR ALBUQUERQUE ARTCC        218702003
SUSAUFKZABZRZXB04360MMFR    13N G N29482701W104350874                           FL180FL180UNLTDRR ALBUQUERQUE ARTCC        218712003
SUSAUFKZABZRZXB04370MMFR    13N G N29483901W104354500                           FL180FL180UNLTDRR ALBUQUERQUE ARTCC        218722003
SUSAUFKZABZRZXB04380MMFR    13N G N29485708W104355565                           FL180FL180UNLTDRR ALBUQUERQUE ARTCC        218732003
SUSAUFKZABZRZXB04390MMFR    13N G N29490761W104361480                           FL180FL180UNLTDRR ALBUQUERQUE ARTCC        218742003
SUSAUFKZABZRZXB04400MMFR    13N G N29493894W104362188                           FL180FL180UNLTDRR ALBUQUERQUE ARTCC        218752003
SUSAUFKZABZRZXB04410MMFR    13N G N29495041W104363065                           FL180FL180UNLTDRR ALBUQUERQUE ARTCC        218762003
SUSAUFKZABZRZXB04420MMFR    13N G N29495263W104365342                           FL180FL180UNLTDRR ALBUQUERQUE ARTCC        218772003
SUSAUFKZABZRZXB04430MMFR    13N G N29500171W104365545                           FL180FL180UNLTDRR ALBUQUERQUE ARTCC        218782003
SUSAUFKZABZRZXB04440MMFR    13N G N29503626W104370924                           FL180FL180UNLTDRR ALBUQUERQUE ARTCC        218792003
SUSAUFKZABZRZXB04450MMFR    13N G N29505528W104370762                           FL180FL180UNLTDRR ALBUQUERQUE ARTCC        218802003
SUSAUFKZABZRZXB04460MMFR    13N G N29510253W104372481                           FL180FL180UNLTDRR ALBUQUERQUE ARTCC        218812003
SUSAUFKZABZRZXB04470MMFR    13N G N29511481W104373544                           FL180FL180UNLTDRR ALBUQUERQUE ARTCC        218822003
SUSAUFKZABZRZXB04480MMFR    13N G N29515856W104373893                           FL180FL180UNLTDRR ALBUQUERQUE ARTCC        218832003
SUSAUFKZABZRZXB04490MMFR    13N G N29521913W104374684                           FL180FL180UNLTDRR ALBUQUERQUE ARTCC        218842003
SUSAUFKZABZRZXB04500MMFR    13N G N29523615W104381650                           FL180FL180UNLTDRR ALBUQUERQUE ARTCC        218852003
SUSAUFKZABZRZXB04510MMFR    13N G N29530397W104384160                           FL180FL180UNLTDRR ALBUQUERQUE ARTCC        218862003
SUSAUFKZABZRZXB04520MMFR    13N G N29533170W104391335                           FL180FL180UNLTDRR ALBUQUERQUE ARTCC        218872003
SUSAUFKZABZRZXB04530MMFR    13N G N29540226W104391481                           FL180FL180UNLTDRR ALBUQUERQUE ARTCC        218882003
SUSAUFKZABZRZXB04540MMFR    13N G N29540881W104392060                           FL180FL180UNLTDRR ALBUQUERQUE ARTCC        218892003
SUSAUFKZABZRZXB04550MMFR    13N G N29541099W104394623                           FL180FL180UNLTDRR ALBUQUERQUE ARTCC        218902003
SUSAUFKZABZRZXB04560MMFR    13N G N29543075W104395318                           FL180FL180UNLTDRR ALBUQUERQUE ARTCC        218912003
SUSAUFKZABZRZXB04570MMFR    13N G N29545356W104402108                           FL180FL180UNLTDRR ALBUQUERQUE ARTCC        218922003
SUSAUFKZABZRZXB04580MMFR    13N G N29553381W104404259                           FL180FL180UNLTDRR ALBUQUERQUE ARTCC        218932003
SUSAUFKZABZRZXB04590MMFR    13N G N29570233W104403350                           FL180FL180UNLTDRR ALBUQUERQUE ARTCC        218942003
SUSAUFKZABZRZXB04600MMFR    13N G N29570994W104401842                           FL180FL180UNLTDRR ALBUQUERQUE ARTCC        218952003
SUSAUFKZABZRZXB04610MMFR    13N G N29572152W104401765                           FL180FL180UNLTDRR ALBUQUERQUE ARTCC        218962003
SUSAUFKZABZRZXB04620MMFR    13N G N29572294W104403762                           FL180FL180UNLTDRR ALBUQUERQUE ARTCC        218972003
SUSAUFKZABZRZXB04630MMFR    13N G N29573690W104404545                           FL180FL180UNLTDRR ALBUQUERQUE ARTCC        218982003
SUSAUFKZABZRZXB04640MMFR    13N G N29575673W104404572                           FL180FL180UNLTDRR ALBUQUERQUE ARTCC        218992003
SUSAUFKZABZRZXB04650MMFR    13N G N29582327W104403666                           FL180FL180UNLTDRR ALBUQUERQUE ARTCC        219002003
SUSAUFKZABZRZXB04660MMFR    13N G N29583067W104404059                           FL180FL180UNLTDRR ALBUQUERQUE ARTCC        219012003
SUSAUFKZABZRZXB04670MMFR    13N G N29582620W104410995                           FL180FL180UNLTDRR ALBUQUERQUE ARTCC        219022003
SUSAUFKZABZRZXB04680MMFR    13N G N29583189W104411764                           FL180FL180UNLTDRR ALBUQUERQUE ARTCC        219032003
SUSAUFKZABZRZXB04690MMFR    13N G N29584736W104411091                           FL180FL180UNLTDRR ALBUQUERQUE ARTCC        219042003
SUSAUFKZABZRZXB04700MMFR    13N G N29590760W104410206                           FL180FL180UNLTDRR ALBUQUERQUE ARTCC        219052003
SUSAUFKZABZRZXB04710MMFR    13N G N29592815W104411187                           FL180FL180UNLTDRR ALBUQUERQUE ARTCC        219062003
SUSAUFKZABZRZXB04720MMFR    13N G N29594639W104410646                           FL180FL180UNLTDRR ALBUQUERQUE ARTCC        219072003
SUSAUFKZABZRZXB04730MMFR    13N G N30000000W104411434                           FL180FL180UNLTDRR ALBUQUERQUE ARTCC        219082003
SUSAUFKZABZRZXB04740MMFR    13N G N30001840W104412500                           FL180FL180UNLTDRR ALBUQUERQUE ARTCC        219092003
SUSAUFKZABZRZXB04750MMFR    13N G N30005403W104411607                           FL180FL180UNLTDRR ALBUQUERQUE ARTCC        219102003
SUSAUFKZABZRZXB04760MMFR    13N G N30010638W104412005                           FL180FL180UNLTDRR ALBUQUERQUE ARTCC        219112003
SUSAUFKZABZRZXB04770MMFR    13N G N30012824W104415842                           FL180FL180UNLTDRR ALBUQUERQUE ARTCC        219122003
SUSAUFKZABZRZXB04780MMFR    13N G N30014055W104420622                           FL180FL180UNLTDRR ALBUQUERQUE ARTCC        219132003
SUSAUFKZABZRZXB04790MMFR    13N G N30022542W104414411                           FL180FL180UNLTDRR ALBUQUERQUE ARTCC        219142003
SUSAUFKZABZRZXB04800MMFR    13N G N30031144W104420573                           FL180FL180UNLTDRR ALBUQUERQUE ARTCC        219152003
SUSAUFKZABZRZXB04810MMFR    13N G N30031414W104420565                           FL180FL180UNLTDRR ALBUQUERQUE ARTCC        219162003
SUSAUFKZABZRZXB04820MMFR    13N G N30034947W104420444                           FL180FL180UNLTDRR ALBUQUERQUE ARTCC        219172003
SUSAUFKZABZRZXB04830MMFR    13N G N30035036W104415875                           FL180FL180UNLTDRR ALBUQUERQUE ARTCC        219182003
SUSAUFKZABZRZXB04840MMFR    13N G N30043456W104412426                           FL180FL180UNLTDRR ALBUQUERQUE ARTCC        219192003
SUSAUFKZABZRZXB04850MMFR    13N G N30050196W104411231                           FL180FL180UNLTDRR ALBUQUERQUE ARTCC        219202003
SUSAUFKZABZRZXB04860MMFR    13N G N30052426W104411267                           FL180FL180UNLTDRR ALBUQUERQUE ARTCC        219212003
SUSAUFKZABZRZXB04870MMFR    13N G N30053602W104405569                           FL180FL180UNLTDRR ALBUQUERQUE ARTCC        219222003
SUSAUFKZABZRZXB04880MMFR    13N G N30061533W104412585                           FL180FL180UNLTDRR ALBUQUERQUE ARTCC        219232003
SUSAUFKZABZRZXB04890MMFR    13N G N30062864W104411843                           FL180FL180UNLTDRR ALBUQUERQUE ARTCC        219242003
SUSAUFKZABZRZXB04900MMFR    13N G N30062382W104410693                           FL180FL180UNLTDRR ALBUQUERQUE ARTCC        219252003
SUSAUFKZABZRZXB04910MMFR    13N G N30063212W104410327                           FL180FL180UNLTDRR ALBUQUERQUE ARTCC        219262003
SUSAUFKZABZRZXB04920MMFR    13N G N30071730W104412585                           FL180FL180UNLTDRR ALBUQUERQUE ARTCC        219272003
SUSAUFKZABZRZXB04930MMFR    13N G N30074702W104412821                           FL180FL180UNLTDRR ALBUQUERQUE ARTCC        219282003
SUSAUFKZABZRZXB04940MMFR    13N G N30083599W104410898                           FL180FL180UNLTDRR ALBUQUERQUE ARTCC        219292003
SUSAUFKZABZRZXB04950MMFR    13N G N30085492W104411500                           FL180FL180UNLTDRR ALBUQUERQUE ARTCC        219302003
SUSAUFKZABZRZXB04960MMFR    13N G N30095204W104410541                           FL180FL180UNLTDRR ALBUQUERQUE ARTCC        219312003
SUSAUFKZABZRZXB04970MMFR    13N G N30102918W104410885                           FL180FL180UNLTDRR ALBUQUERQUE ARTCC        219322003
SUSAUFKZABZRZXB04980MMFR    13N G N30110622W104412088                           FL180FL180UNLTDRR ALBUQUERQUE ARTCC        219332003
SUSAUFKZABZRZXB04990MMFR    13N G N30114146W104414521                           FL180FL180UNLTDRR ALBUQUERQUE ARTCC        219342003
SUSAUFKZABZRZXB05000MMFR    13N G N30132422W104422872                           FL180FL180UNLTDRR ALBUQUERQUE ARTCC        219352003
SUSAUFKZABZRZXB05010MMFR    13N G N30135911W104421312                           FL180FL180UNLTDRR ALBUQUERQUE ARTCC        219362003
SUSAUFKZABZRZXB05020MMFR    13N G N30141391W104421900                           FL180FL180UNLTDRR ALBUQUERQUE ARTCC        219372003
SUSAUFKZABZRZXB05030MMFR    13N G N30143577W104425651                           FL180FL180UNLTDRR ALBUQUERQUE ARTCC        219382003
SUSAUFKZABZRZXB05040MMFR    13N G N30151914W104433151                           FL180FL180UNLTDRR ALBUQUERQUE ARTCC        219392003
SUSAUFKZABZRZXB05050MMFR    13N G N30153683W104441276                           FL180FL180UNLTDRR ALBUQUERQUE ARTCC        219402003
SUSAUFKZABZRZXB05060MMFR    13N G N30153661W104443083                           FL180FL180UNLTDRR ALBUQUERQUE ARTCC        219412003
SUSAUFKZABZRZXB05070MMFR    13N G N30154791W104445294                           FL180FL180UNLTDRR ALBUQUERQUE ARTCC        219422003
SUSAUFKZABZRZXB05080MMFR    13N G N30155262W104445429                           FL180FL180UNLTDRR ALBUQUERQUE ARTCC        219432003
SUSAUFKZABZRZXB05090MMFR    13N G N30155862W104445596                           FL180FL180UNLTDRR ALBUQUERQUE ARTCC        219442003
SUSAUFKZABZRZXB05100MMFR    13N G N30161607W104444764                           FL180FL180UNLTDRR ALBUQUERQUE ARTCC        219452003
SUSAUFKZABZRZXB05110MMFR    13N G N30162506W104445544                           FL180FL180UNLTDRR ALBUQUERQUE ARTCC        219462003
SUSAUFKZABZRZXB05120MMFR    13N G N30162801W104452502                           FL180FL180UNLTDRR ALBUQUERQUE ARTCC        219472003
SUSAUFKZABZRZXB05130MMFR    13N G N30164034W104452999                           FL180FL180UNLTDRR ALBUQUERQUE ARTCC        219482003
SUSAUFKZABZRZXB05140MMFR    13N G N30170693W104451711                           FL180FL180UNLTDRR ALBUQUERQUE ARTCC        219492003
SUSAUFKZABZRZXB05150MMFR    13N G N30172667W104452502                           FL180FL180UNLTDRR ALBUQUERQUE ARTCC        219502003
SUSAUFKZABZRZXB05160MMFR    13N G N30175854W104455317                           FL180FL180UNLTDRR ALBUQUERQUE ARTCC        219512003
SUSAUFKZABZRZXB05170MMFR    13N G N30183098W104464327                           FL180FL180UNLTDRR ALBUQUERQUE ARTCC        219522003
SUSAUFKZABZRZXB05180MMFR    13N G N30184665W104464544                           FL180FL180UNLTDRR ALBUQUERQUE ARTCC        219532003
SUSAUFKZABZRZXB05190MMFR    13N G N30190938W104471821                           FL180FL180UNLTDRR ALBUQUERQUE ARTCC        219542003
SUSAUFKZABZRZXB05200MMFR    13N G N30193971W104473680                           FL180FL180UNLTDRR ALBUQUERQUE ARTCC        219552003
SUSAUFKZABZRZXB05210MMFR    13N G N30195576W104481523                           FL180FL180UNLTDRR ALBUQUERQUE ARTCC        219562003
SUSAUFKZABZRZXB05220MMFR    13N G N30201203W104483552                           FL180FL180UNLTDRR ALBUQUERQUE ARTCC        219572003
SUSAUFKZABZRZXB05230MMFR    13N G N30205883W104485824                           FL180FL180UNLTDRR ALBUQUERQUE ARTCC        219582003
SUSAUFKZABZRZXB05240MMFR    13N G N30211220W104484607                           FL180FL180UNLTDRR ALBUQUERQUE ARTCC        219592003
SUSAUFKZABZRZXB05250MMFR    13N G N30211820W104482899                           FL180FL180UNLTDRR ALBUQUERQUE ARTCC        219602003
SUSAUFKZABZRZXB05260MMFR    13N G N30212164W104483066                           FL180FL180UNLTDRR ALBUQUERQUE ARTCC        219612003
SUSAUFKZABZRZXB05270MMFR    13N G N30214283W104484085                           FL180FL180UNLTDRR ALBUQUERQUE ARTCC        219622003
SUSAUFKZABZRZXB05280MMFR    13N G N30215502W104485728                           FL180FL180UNLTDRR ALBUQUERQUE ARTCC        219632003
SUSAUFKZABZRZXB05290MMFR    13N G N30221392W104490524                           FL180FL180UNLTDRR ALBUQUERQUE ARTCC        219642003
SUSAUFKZABZRZXB05300MMFR    13N G N30222278W104492348                           FL180FL180UNLTDRR ALBUQUERQUE ARTCC        219652003
SUSAUFKZABZRZXB05310MMFR    13N G N30223272W104502660                           FL180FL180UNLTDRR ALBUQUERQUE ARTCC        219662003
SUSAUFKZABZRZXB05320MMFR    13N G N30224719W104505832                           FL180FL180UNLTDRR ALBUQUERQUE ARTCC        219672003
SUSAUFKZABZRZXB05330MMFR    13N G N30225201W104510889                           FL180FL180UNLTDRR ALBUQUERQUE ARTCC        219682003
SUSAUFKZABZRZXB05340MMFR    13N G N30232238W104512372                           FL180FL180UNLTDRR ALBUQUERQUE ARTCC        219692003
SUSAUFKZABZRZXB05350MMFR    13N G N30240640W104510541                           FL180FL180UNLTDRR ALBUQUERQUE ARTCC        219702003
SUSAUFKZABZRZXB05360MMFR    13N G N30242616W104511051                           FL180FL180UNLTDRR ALBUQUERQUE ARTCC        219712003
SUSAUFKZABZRZXB05370MMFR    13N G N30244214W104504785                           FL180FL180UNLTDRR ALBUQUERQUE ARTCC        219722003
SUSAUFKZABZRZXB05380MMFR    13N G N30245371W104504714                           FL180FL180UNLTDRR ALBUQUERQUE ARTCC        219732003
SUSAUFKZABZRZXB05390MMFR    13N G N30250825W104511315                           FL180FL180UNLTDRR ALBUQUERQUE ARTCC        219742003
SUSAUFKZABZRZXB05400MMFR    13N G N30253038W104512688                           FL180FL180UNLTDRR ALBUQUERQUE ARTCC        219752003
SUSAUFKZABZRZXB05410MMFR    13N G N30253767W104513845                           FL180FL180UNLTDRR ALBUQUERQUE ARTCC        219762003
SUSAUFKZABZRZXB05420MMFR    13N G N30264277W104515006                           FL180FL180UNLTDRR ALBUQUERQUE ARTCC        219772003
SUSAUFKZABZRZXB05430MMFR    13N G N30272656W104514987                           FL180FL180UNLTDRR ALBUQUERQUE ARTCC        219782003
SUSAUFKZABZRZXB05440MMFR    13N G N30280633W104514007                           FL180FL180UNLTDRR ALBUQUERQUE ARTCC        219792003
SUSAUFKZABZRZXB05450MMFR    13N G N30283909W104520163                           FL180FL180UNLTDRR ALBUQUERQUE ARTCC        219802003
SUSAUFKZABZRZXB05460MMFR    13N G N30290655W104514589                           FL180FL180UNLTDRR ALBUQUERQUE ARTCC        219812003
SUSAUFKZABZRZXB05470MMFR    13N G N30292133W104515281                           FL180FL180UNLTDRR ALBUQUERQUE ARTCC        219822003
SUSAUFKZABZRZXB05480MMFR    13N G N30293102W104521017                           FL180FL180UNLTDRR ALBUQUERQUE ARTCC        219832003
SUSAUFKZABZRZXB05490MMFR    13N G N30303199W104522173                           FL180FL180UNLTDRR ALBUQUERQUE ARTCC        219842003
SUSAUFKZABZRZXB05500MMFR    13N G N30310632W104525002                           FL180FL180UNLTDRR ALBUQUERQUE ARTCC        219852003
SUSAUFKZABZRZXB05510MMFR    13N G N30311867W104525310                           FL180FL180UNLTDRR ALBUQUERQUE ARTCC        219862003
SUSAUFKZABZRZXB05520MMFR    13N G N30313035W104524376                           FL180FL180UNLTDRR ALBUQUERQUE ARTCC        219872003
SUSAUFKZABZRZXB05530MMFR    13N G N30315078W104530131                           FL180FL180UNLTDRR ALBUQUERQUE ARTCC        219882003
SUSAUFKZABZRZXB05540MMFR    13N G N30335163W104534451                           FL180FL180UNLTDRR ALBUQUERQUE ARTCC        219892003
SUSAUFKZABZRZXB05550MMFR    13N G N30341555W104540253                           FL180FL180UNLTDRR ALBUQUERQUE ARTCC        219902003
SUSAUFKZABZRZXB05560MMFR    13N G N30345133W104542953                           FL180FL180UNLTDRR ALBUQUERQUE ARTCC        219912003
SUSAUFKZABZRZXB05570MMFR    13N G N30350908W104550139                           FL180FL180UNLTDRR ALBUQUERQUE ARTCC        219922003
SUSAUFKZABZRZXB05580MMFR    13N G N30360175W104551567                           FL180FL180UNLTDRR ALBUQUERQUE ARTCC        219932003
SUSAUFKZABZRZXB05590MMFR    13N G N30360408W104552718                           FL180FL180UNLTDRR ALBUQUERQUE ARTCC        219942003
SUSAUFKZABZRZXB05600MMFR    13N G N30354734W104554410                           FL180FL180UNLTDRR ALBUQUERQUE ARTCC        219952003
SUSAUFKZABZRZXB05610MMFR    13N G N30360446W104560066                           FL180FL180UNLTDRR ALBUQUERQUE ARTCC        219962003
SUSAUFKZABZRZXB05620MMFR    13N G N30361167W104561701                           FL180FL180UNLTDRR ALBUQUERQUE ARTCC        219972003
SUSAUFKZABZRZXB05630MMFR    13N G N30360931W104571051                           FL180FL180UNLTDRR ALBUQUERQUE ARTCC        219982003
SUSAUFKZABZRZXB05640MMFR    13N G N30362274W104575566                           FL180FL180UNLTDRR ALBUQUERQUE ARTCC        219992003
SUSAUFKZABZRZXB05650MMFR    13N G N30364623W104582956                           FL180FL180UNLTDRR ALBUQUERQUE ARTCC        220002003
SUSAUFKZABZRZXB05660MMFR    13N G N30371815W104585117                           FL180FL180UNLTDRR ALBUQUERQUE ARTCC        220012003
SUSAUFKZABZRZXB05670MMFR    13N G N30375431W104590427                           FL180FL180UNLTDRR ALBUQUERQUE ARTCC        220022003
SUSAUFKZABZRZXB05680MMFR    13N G N30384743W104591474                           FL180FL180UNLTDRR ALBUQUERQUE ARTCC        220032003
SUSAUFKZABZRZXB05690MMFR    13N G N30392512W104590691                           FL180FL180UNLTDRR ALBUQUERQUE ARTCC        220042003
SUSAUFKZABZRZXB05700MMFR    13N G N30400183W104594009                           FL180FL180UNLTDRR ALBUQUERQUE ARTCC        220052003
SUSAUFKZABZRZXB05710MMFR    13N G N30403384W104595503                           FL180FL180UNLTDRR ALBUQUERQUE ARTCC        220062003
SUSAUFKZABZRZXB05720MMFR    13N G N30403877W105000000                           FL180FL180UNLTDRR ALBUQUERQUE ARTCC        220072003
SUSAUFKZABZRZXB05730MMFR    13N G N30404931W105001063                           FL180FL180UNLTDRR ALBUQUERQUE ARTCC        220082003
SUSAUFKZABZRZXB05740MMFR    13N G N30405328W105002216                           FL180FL180UNLTDRR ALBUQUERQUE ARTCC        220092003
SUSAUFKZABZRZXB05750MMFR    13N G N30404517W105011180                           FL180FL180UNLTDRR ALBUQUERQUE ARTCC        220102003
SUSAUFKZABZRZXB05760MMFR    13N G N30405062W105013481                           FL180FL180UNLTDRR ALBUQUERQUE ARTCC        220112003
SUSAUFKZABZRZXB05770MMFR    13N G N30410913W105020961                           FL180FL180UNLTDRR ALBUQUERQUE ARTCC        220122003
SUSAUFKZABZRZXB05780MMFR    13N G N30410974W105022491                           FL180FL180UNLTDRR ALBUQUERQUE ARTCC        220132003
SUSAUFKZABZRZXB05790MMFR    13N G N30405233W105022936                           FL180FL180UNLTDRR ALBUQUERQUE ARTCC        220142003
SUSAUFKZABZRZXB05800MMFR    13N G N30404558W105023974                           FL180FL180UNLTDRR ALBUQUERQUE ARTCC        220152003
SUSAUFKZABZRZXB05810MMFR    13N G N30405028W105025803                           FL180FL180UNLTDRR ALBUQUERQUE ARTCC        220162003
SUSAUFKZABZRZXB05820MMFR    13N G N30405900W105032402                           FL180FL180UNLTDRR ALBUQUERQUE ARTCC        220172003
SUSAUFKZABZRZXB05830MMFR    13N G N30411447W105033959                           FL180FL180UNLTDRR ALBUQUERQUE ARTCC        220182003
SUSAUFKZABZRZXB05840MMFR    13N G N30414566W105035360                           FL180FL180UNLTDRR ALBUQUERQUE ARTCC        220192003
SUSAUFKZABZRZXB05850MMFR    13N G N30430418W105054415                           FL180FL180UNLTDRR ALBUQUERQUE ARTCC        220202003
SUSAUFKZABZRZXB05860MMFR    13N G N30433595W105061447                           FL180FL180UNLTDRR ALBUQUERQUE ARTCC        220212003
SUSAUFKZABZRZXB05870MMFR    13N G N30443475W105065965                           FL180FL180UNLTDRR ALBUQUERQUE ARTCC        220222003
SUSAUFKZABZRZXB05880MMFR    13N G N30445496W105072973                           FL180FL180UNLTDRR ALBUQUERQUE ARTCC        220232003
SUSAUFKZABZRZXB05890MMFR    13N G N30445543W105075365                           FL180FL180UNLTDRR ALBUQUERQUE ARTCC        220242003
SUSAUFKZABZRZXB05900MMFR    13N G N30451068W105082361                           FL180FL180UNLTDRR ALBUQUERQUE ARTCC        220252003
SUSAUFKZABZRZXB05910MMFR    13N G N30450869W105084655                           FL180FL180UNLTDRR ALBUQUERQUE ARTCC        220262003
SUSAUFKZABZRZXB05920MMFR    13N G N30445930W105090742                           FL180FL180UNLTDRR ALBUQUERQUE ARTCC        220272003
SUSAUFKZABZRZXB05930MMFR    13N G N30450565W105092478                           FL180FL180UNLTDRR ALBUQUERQUE ARTCC        220282003
SUSAUFKZABZRZXB05940MMFR    13N G N30451957W105093272                           FL180FL180UNLTDRR ALBUQUERQUE ARTCC        220292003
SUSAUFKZABZRZXB05950MMFR    13N G N30455037W105091610                           FL180FL180UNLTDRR ALBUQUERQUE ARTCC        220302003
SUSAUFKZABZRZXB05960MMFR    13N G N30462626W105094651                           FL180FL180UNLTDRR ALBUQUERQUE ARTCC        220312003
SUSAUFKZABZRZXB05970MMFR    13N G N30460193W105101186                           FL180FL180UNLTDRR ALBUQUERQUE ARTCC        220322003
SUSAUFKZABZRZXB05980MMFR    13N G N30462534W105104775                           FL180FL180UNLTDRR ALBUQUERQUE ARTCC        220332003
SUSAUFKZABZRZXB05990MMFR    13N G N30464995W105105877                           FL180FL180UNLTDRR ALBUQUERQUE ARTCC        220342003
SUSAUFKZABZRZXB06000MMFR    13N G N30471111W105111931                           FL180FL180UNLTDRR ALBUQUERQUE ARTCC        220352003
SUSAUFKZABZRZXB06010MMFR    13N G N30471395W105115002                           FL180FL180UNLTDRR ALBUQUERQUE ARTCC        220362003
SUSAUFKZABZRZXB06020MMFR    13N G N30472130W105115494                           FL180FL180UNLTDRR ALBUQUERQUE ARTCC        220372003
SUSAUFKZABZRZXB06030MMFR    13N G N30474858W105115359                           FL180FL180UNLTDRR ALBUQUERQUE ARTCC        220382003
SUSAUFKZABZRZXB06040MMFR    13N G N30481098W105124097                           FL180FL180UNLTDRR ALBUQUERQUE ARTCC        220392003
SUSAUFKZABZRZXB06050MMFR    13N G N30475976W105131233                           FL180FL180UNLTDRR ALBUQUERQUE ARTCC        220402003
SUSAUFKZABZRZXB06060MMFR    13N G N30480797W105140996                           FL180FL180UNLTDRR ALBUQUERQUE ARTCC        220412003
SUSAUFKZABZRZXB06070MMFR    13N G N30475023W105143545                           FL180FL180UNLTDRR ALBUQUERQUE ARTCC        220422003
SUSAUFKZABZRZXB06080MMFR    13N G N30474975W105150703                           FL180FL180UNLTDRR ALBUQUERQUE ARTCC        220432003
SUSAUFKZABZRZXB06090MMFR    13N G N30475584W105153972                           FL180FL180UNLTDRR ALBUQUERQUE ARTCC        220442003
SUSAUFKZABZRZXB06100MMFR    13N G N30480397W105154850                           FL180FL180UNLTDRR ALBUQUERQUE ARTCC        220452003
SUSAUFKZABZRZXB06110MMFR    13N G N30482777W105155762                           FL180FL180UNLTDRR ALBUQUERQUE ARTCC        220462003
SUSAUFKZABZRZXB06120MMFR    13N G N30484683W105160081                           FL180FL180UNLTDRR ALBUQUERQUE ARTCC        220472003
SUSAUFKZABZRZXB06130MMFR    13N G N30490071W105160312                           FL180FL180UNLTDRR ALBUQUERQUE ARTCC        220482003
SUSAUFKZABZRZXB06140MMFR    13N G N30491039W105161770                           FL180FL180UNLTDRR ALBUQUERQUE ARTCC        220492003
SUSAUFKZABZRZXB06150MMFR    13N G N30490873W105171129                           FL180FL180UNLTDRR ALBUQUERQUE ARTCC        220502003
SUSAUFKZABZRZXB06160MMFR    13N G N30492659W105173081                           FL180FL180UNLTDRR ALBUQUERQUE ARTCC        220512003
SUSAUFKZABZRZXB06170MMFR    13N G N30492798W105174710                           FL180FL180UNLTDRR ALBUQUERQUE ARTCC        220522003
SUSAUFKZABZRZXB06180MMFR    13N G N30485949W105181333                           FL180FL180UNLTDRR ALBUQUERQUE ARTCC        220532003
SUSAUFKZABZRZXB06190MMFR    13N G N30485515W105182665                           FL180FL180UNLTDRR ALBUQUERQUE ARTCC        220542003
SUSAUFKZABZRZXB06200MMFR    13N G N30502029W105200427                           FL180FL180UNLTDRR ALBUQUERQUE ARTCC        220552003
SUSAUFKZABZRZXB06210MMFR    13N G N30503108W105205241                           FL180FL180UNLTDRR ALBUQUERQUE ARTCC        220562003
SUSAUFKZABZRZXB06220MMFR    13N G N30505980W105215435                           FL180FL180UNLTDRR ALBUQUERQUE ARTCC        220572003
SUSAUFKZABZRZXB06230MMFR    13N G N30510416W105231219                           FL180FL180UNLTDRR ALBUQUERQUE ARTCC        220582003
SUSAUFKZABZRZXB06240MMFR    13N G N30510555W105233699                           FL180FL180UNLTDRR ALBUQUERQUE ARTCC        220592003
SUSAUFKZABZRZXB06250MMFR    13N G N30515609W105232663                           FL180FL180UNLTDRR ALBUQUERQUE ARTCC        220602003
SUSAUFKZABZRZXB06260MMFR    13N G N30522245W105233010                           FL180FL180UNLTDRR ALBUQUERQUE ARTCC        220612003
SUSAUFKZABZRZXB06270MMFR    13N G N30525584W105235863                           FL180FL180UNLTDRR ALBUQUERQUE ARTCC        220622003
SUSAUFKZABZRZXB06280MMFR    13N G N30531905W105235339                           FL180FL180UNLTDRR ALBUQUERQUE ARTCC        220632003
SUSAUFKZABZRZXB06290MMFR    13N G N30532801W105240034                           FL180FL180UNLTDRR ALBUQUERQUE ARTCC        220642003
SUSAUFKZABZRZXB06300MMFR    13N G N30533168W105242819                           FL180FL180UNLTDRR ALBUQUERQUE ARTCC        220652003
SUSAUFKZABZRZXB06310MMFR    13N G N30540438W105244810                           FL180FL180UNLTDRR ALBUQUERQUE ARTCC        220662003
SUSAUFKZABZRZXB06320MMFR    13N G N30541245W105245884                           FL180FL180UNLTDRR ALBUQUERQUE ARTCC        220672003
SUSAUFKZABZRZXB06330MMFR    13N G N30541780W105251845                           FL180FL180UNLTDRR ALBUQUERQUE ARTCC        220682003
SUSAUFKZABZRZXB06340MMFR    13N G N30543657W105262755                           FL180FL180UNLTDRR ALBUQUERQUE ARTCC        220692003
SUSAUFKZABZRZXB06350MMFR    13N G N30545434W105265095                           FL180FL180UNLTDRR ALBUQUERQUE ARTCC        220702003
SUSAUFKZABZRZXB06360MMFR    13N G N30551892W105270208                           FL180FL180UNLTDRR ALBUQUERQUE ARTCC        220712003
SUSAUFKZABZRZXB06370MMFR    13N G N30552862W105271477                           FL180FL180UNLTDRR ALBUQUERQUE ARTCC        220722003
SUSAUFKZABZRZXB06380MMFR    13N G N30554199W105275437                           FL180FL180UNLTDRR ALBUQUERQUE ARTCC        220732003
SUSAUFKZABZRZXB06390MMFR    13N G N30555850W105280865                           FL180FL180UNLTDRR ALBUQUERQUE ARTCC        220742003
SUSAUFKZABZRZXB06400MMFR    13N G N30561046W105281901                           FL180FL180UNLTDRR ALBUQUERQUE ARTCC        220752003
SUSAUFKZABZRZXB06410MMFR    13N G N30565085W105291172                           FL180FL180UNLTDRR ALBUQUERQUE ARTCC        220762003
SUSAUFKZABZRZXB06420MMFR    13N G N30565476W105292429                           FL180FL180UNLTDRR ALBUQUERQUE ARTCC        220772003
SUSAUFKZABZRZXB06430MMFR    13N G N30574235W105294171                           FL180FL180UNLTDRR ALBUQUERQUE ARTCC        220782003
SUSAUFKZABZRZXB06440MMFR    13N G N30575034W105295723                           FL180FL180UNLTDRR ALBUQUERQUE ARTCC        220792003
SUSAUFKZABZRZXB06450MMFR    13N G N30575225W105302988                           FL180FL180UNLTDRR ALBUQUERQUE ARTCC        220802003
SUSAUFKZABZRZXB06460MMFR    13N G N30580265W105304927                           FL180FL180UNLTDRR ALBUQUERQUE ARTCC        220812003
SUSAUFKZABZRZXB06470MMFR    13N G N30585853W105315203                           FL180FL180UNLTDRR ALBUQUERQUE ARTCC        220822003
SUSAUFKZABZRZXB06480MMFR    13N G N30592033W105330737                           FL180FL180UNLTDRR ALBUQUERQUE ARTCC        220832003
SUSAUFKZABZRZXB06490MMFR    13N G N31005312W105340977                           FL180FL180UNLTDRR ALBUQUERQUE ARTCC        220842003
SUSAUFKZABZRZXB06500MMFR    13N G N31013496W105343793                           FL180FL180UNLTDRR ALBUQUERQUE ARTCC        220852003
SUSAUFKZABZRZXB06510MMFR    13N G N31020213W105344243                           FL180FL180UNLTDRR ALBUQUERQUE ARTCC        220862003
SUSAUFKZABZRZXB06520MMFR    13N G N31030966W105345174                           FL180FL180UNLTDRR ALBUQUERQUE ARTCC        220872003
SUSAUFKZABZRZXB06530MMFR    13N G N31033096W105350089                           FL180FL180UNLTDRR ALBUQUERQUE ARTCC        220882003
SUSAUFKZABZRZXB06540MMFR    13N G N31034370W105352715                           FL180FL180UNLTDRR ALBUQUERQUE ARTCC        220892003
SUSAUFKZABZRZXB06550MMFR    13N G N31050310W105360554                           FL180FL180UNLTDRR ALBUQUERQUE ARTCC        220902003
SUSAUFKZABZRZXB06560MMFR    13N G N31052658W105363106                           FL180FL180UNLTDRR ALBUQUERQUE ARTCC        220912003
SUSAUFKZABZRZXB06570MMFR    13N G N31054490W105370803                           FL180FL180UNLTDRR ALBUQUERQUE ARTCC        220922003
SUSAUFKZABZRZXB06580MMFR    13N G N31055629W105380304                           FL180FL180UNLTDRR ALBUQUERQUE ARTCC        220932003
SUSAUFKZABZRZXB06590MMFR    13N G N31061153W105382743                           FL180FL180UNLTDRR ALBUQUERQUE ARTCC        220942003
SUSAUFKZABZRZXB06600MMFR    13N G N31071346W105391217                           FL180FL180UNLTDRR ALBUQUERQUE ARTCC        220952003
SUSAUFKZABZRZXB06610MMFR    13N G N31072782W105393945                           FL180FL180UNLTDRR ALBUQUERQUE ARTCC        220962003
SUSAUFKZABZRZXB06620MMFR    13N G N31075152W105412187                           FL180FL180UNLTDRR ALBUQUERQUE ARTCC        220972003
SUSAUFKZABZRZXB06630MMFR    13N G N31081842W105422498                           FL180FL180UNLTDRR ALBUQUERQUE ARTCC        220982003
SUSAUFKZABZRZXB06640MMFR    13N G N31091759W105432318                           FL180FL180UNLTDRR ALBUQUERQUE ARTCC        220992003
SUSAUFKZABZRZXB06650MMFR    13N G N31092826W105432634                           FL180FL180UNLTDRR ALBUQUERQUE ARTCC        221002003
SUSAUFKZABZRZXB06660MMFR    13N G N31094910W105435955                           FL180FL180UNLTDRR ALBUQUERQUE ARTCC        221012003
SUSAUFKZABZRZXB06670MMFR    13N G N31100167W105443350                           FL180FL180UNLTDRR ALBUQUERQUE ARTCC        221022003
SUSAUFKZABZRZXB06680MMFR    13N G N31100355W105454850                           FL180FL180UNLTDRR ALBUQUERQUE ARTCC        221032003
SUSAUFKZABZRZXB06690MMFR    13N G N31101550W105461092                           FL180FL180UNLTDRR ALBUQUERQUE ARTCC        221042003
SUSAUFKZABZRZXB06700MMFR    13N G N31103652W105463454                           FL180FL180UNLTDRR ALBUQUERQUE ARTCC        221052003
SUSAUFKZABZRZXB06710MMFR    13N G N31110591W105464217                           FL180FL180UNLTDRR ALBUQUERQUE ARTCC        221062003
SUSAUFKZABZRZXB06720MMFR    13N G N31115044W105465376                           FL180FL180UNLTDRR ALBUQUERQUE ARTCC        221072003
SUSAUFKZABZRZXB06730MMFR    13N G N31132186W105483039                           FL180FL180UNLTDRR ALBUQUERQUE ARTCC        221082003
SUSAUFKZABZRZXB06740MMFR    13N G N31141176W105493617                           FL180FL180UNLTDRR ALBUQUERQUE ARTCC        221092003
SUSAUFKZABZRZXB06750MMFR    13N G N31144836W105500405                           FL180FL180UNLTDRR ALBUQUERQUE ARTCC        221102003
SUSAUFKZABZRZXB06760MMFR    13N G N31162357W105511392                           FL180FL180UNLTDRR ALBUQUERQUE ARTCC        221112003
SUSAUFKZABZRZXB06770MMFR    13N G N31173137W105523176                           FL180FL180UNLTDRR ALBUQUERQUE ARTCC        221122003
SUSAUFKZABZRZXB06780MMFR    13N G N31172708W105532166                           FL180FL180UNLTDRR ALBUQUERQUE ARTCC        221132003
SUSAUFKZABZRZXB06790MMFR    13N G N31173662W105534020                           FL180FL180UNLTDRR ALBUQUERQUE ARTCC        221142003
SUSAUFKZABZRZXB06800MMFR    13N G N31184088W105542717                           FL180FL180UNLTDRR ALBUQUERQUE ARTCC        221152003
SUSAUFKZABZRZXB06810MMFR    13N G N31184061W105543552                           FL180FL180UNLTDRR ALBUQUERQUE ARTCC        221162003
SUSAUFKZABZRZXB06820MMFR    13N G N31183882W105552869                           FL180FL180UNLTDRR ALBUQUERQUE ARTCC        221172003
SUSAUFKZABZRZXB06830MMFR    13N G N31185849W105561643                           FL180FL180UNLTDRR ALBUQUERQUE ARTCC        221182003
SUSAUFKZABZRZXB06840MMFR    13N G N31193766W105563868                           FL180FL180UNLTDRR ALBUQUERQUE ARTCC        221192003
SUSAUFKZABZRZXB06850MMFR    13N G N31205526W105563796                           FL180FL180UNLTDRR ALBUQUERQUE ARTCC        221202003
SUSAUFKZABZRZXB06860MMFR    13N G N31213857W105565938                           FL180FL180UNLTDRR ALBUQUERQUE ARTCC        221212003
SUSAUFKZABZRZXB06870MMFR    13N G N31215120W105572765                           FL180FL180UNLTDRR ALBUQUERQUE ARTCC        221222003
SUSAUFKZABZRZXB06880MMFR    13N G N31220318W105582769                           FL180FL180UNLTDRR ALBUQUERQUE ARTCC        221232003
SUSAUFKZABZRZXB06890MMFR    13N G N31225734W105592314                           FL180FL180UNLTDRR ALBUQUERQUE ARTCC        221242003
SUSAUFKZABZRZXB06900MMFR    13N G N31232378W106000143                           FL180FL180UNLTDRR ALBUQUERQUE ARTCC        221252003
SUSAUFKZABZRZXB06910MMFR    13N G N31233238W106002480                           FL180FL180UNLTDRR ALBUQUERQUE ARTCC        221262003
SUSAUFKZABZRZXB06920MMFR    13N G N31233951W106011894                           FL180FL180UNLTDRR ALBUQUERQUE ARTCC        221272003
SUSAUFKZABZRZXB06930MMFR    13N G N31234294W106035025                           FL180FL180UNLTDRR ALBUQUERQUE ARTCC        221282003
SUSAUFKZABZRZXB06940MMFR    13N G N31234971W106042125                           FL180FL180UNLTDRR ALBUQUERQUE ARTCC        221292003
SUSAUFKZABZRZXB06950MMFR    13N G N31240082W106043762                           FL180FL180UNLTDRR ALBUQUERQUE ARTCC        221302003
SUSAUFKZABZRZXB06960MMFR    13N G N31240972W106045073                           FL180FL180UNLTDRR ALBUQUERQUE ARTCC        221312003
SUSAUFKZABZRZXB06970MMFR    13N G N31250627W106054824                           FL180FL180UNLTDRR ALBUQUERQUE ARTCC        221322003
SUSAUFKZABZRZXB06980MMFR    13N G N31252135W106061664                           FL180FL180UNLTDRR ALBUQUERQUE ARTCC        221332003
SUSAUFKZABZRZXB06990MMFR    13N G N31252439W106070682                           FL180FL180UNLTDRR ALBUQUERQUE ARTCC        221342003
SUSAUFKZABZRZXB07000MMFR    13N G N31253344W106074659                           FL180FL180UNLTDRR ALBUQUERQUE ARTCC        221352003
SUSAUFKZABZRZXB07010MMFR    13N G N31261872W106090789                           FL180FL180UNLTDRR ALBUQUERQUE ARTCC        221362003
SUSAUFKZABZRZXB07020MMFR    13N G N31270484W106095073                           FL180FL180UNLTDRR ALBUQUERQUE ARTCC        221372003
SUSAUFKZABZRZXB07030MMFR    13N G N31272165W106101433                           FL180FL180UNLTDRR ALBUQUERQUE ARTCC        221382003
SUSAUFKZABZRZXB07040MMFR    13N G N31273563W106105426                           FL180FL180UNLTDRR ALBUQUERQUE ARTCC        221392003
SUSAUFKZABZRZXB07050MMFR    13N G N31273840W106111846                           FL180FL180UNLTDRR ALBUQUERQUE ARTCC        221402003
SUSAUFKZABZRZXB07060MMFR    13N G N31275422W106114977                           FL180FL180UNLTDRR ALBUQUERQUE ARTCC        221412003
SUSAUFKZABZRZXB07070MMFR    13N G N31281088W106122015                           FL180FL180UNLTDRR ALBUQUERQUE ARTCC        221422003
SUSAUFKZABZRZXB07080MMFR    13N G N31283518W106124116                           FL180FL180UNLTDRR ALBUQUERQUE ARTCC        221432003
SUSAUFKZABZRZXB07090MMFR    13N G N31285636W106125333                           FL180FL180UNLTDRR ALBUQUERQUE ARTCC        221442003
SUSAUFKZABZRZXB07100MMFR    13N G N31295293W106131049                           FL180FL180UNLTDRR ALBUQUERQUE ARTCC        221452003
SUSAUFKZABZRZXB07110MMFR    13N G N31302618W106133656                           FL180FL180UNLTDRR ALBUQUERQUE ARTCC        221462003
SUSAUFKZABZRZXB07120MMFR    13N G N31304053W106135919                           FL180FL180UNLTDRR ALBUQUERQUE ARTCC        221472003
SUSAUFKZABZRZXB07130MMFR    13N G N31310665W106141251                           FL180FL180UNLTDRR ALBUQUERQUE ARTCC        221482003
SUSAUFKZABZRZXB07140MMFR    13N G N31312234W106141204                           FL180FL180UNLTDRR ALBUQUERQUE ARTCC        221492003
SUSAUFKZABZRZXB07150MMFR    13N G N31314604W106142243                           FL180FL180UNLTDRR ALBUQUERQUE ARTCC        221502003
SUSAUFKZABZRZXB07160MMFR    13N G N31320012W106141995                           FL180FL180UNLTDRR ALBUQUERQUE ARTCC        221512003
SUSAUFKZABZRZXB07170MMFR    13N G N31321121W106142509                           FL180FL180UNLTDRR ALBUQUERQUE ARTCC        221522003
SUSAUFKZABZRZXB07180MMFR    13N G N31322463W106143130                           FL180FL180UNLTDRR ALBUQUERQUE ARTCC        221532003
SUSAUFKZABZRZXB07190MMFR    13N G N31325115W106150299                           FL180FL180UNLTDRR ALBUQUERQUE ARTCC        221542003
SUSAUFKZABZRZXB07200MMFR    13N G N31330747W106154787                           FL180FL180UNLTDRR ALBUQUERQUE ARTCC        221552003
SUSAUFKZABZRZXB07210MMFR    13N G N31332737W106162031                           FL180FL180UNLTDRR ALBUQUERQUE ARTCC        221562003
SUSAUFKZABZRZXB07220MMFR    13N G N31340721W106164662                           FL180FL180UNLTDRR ALBUQUERQUE ARTCC        221572003
SUSAUFKZABZRZXB07230MMFR    13N G N31351355W106170895                           FL180FL180UNLTDRR ALBUQUERQUE ARTCC        221582003
SUSAUFKZABZRZXB07240MMFR    13N G N31361461W106174559                           FL180FL180UNLTDRR ALBUQUERQUE ARTCC        221592003
SUSAUFKZABZRZXB07250MMFR    13N G N31371055W106175317                           FL180FL180UNLTDRR ALBUQUERQUE ARTCC        221602003
SUSAUFKZABZRZXB07260MMFR    13N G N31374233W106181056                           FL180FL180UNLTDRR ALBUQUERQUE ARTCC        221612003
SUSAUFKZABZRZXB07270MMFR    13N G N31382414W106184371                           FL180FL180UNLTDRR ALBUQUERQUE ARTCC        221622003
SUSAUFKZABZRZXB07280MMFR    13N G N31395282W106195413                           FL180FL180UNLTDRR ALBUQUERQUE ARTCC        221632003
SUSAUFKZABZRZXB07290MMFR    13N G N31414050W106204777                           FL180FL180UNLTDRR ALBUQUERQUE ARTCC        221642003
SUSAUFKZABZRZXB07300MMFR    13N G N31424721W106220424                           FL180FL180UNLTDRR ALBUQUERQUE ARTCC        221652003
SUSAUFKZABZRZXB07310MMFR    13N G N31432493W106221415                           FL180FL180UNLTDRR ALBUQUERQUE ARTCC        221662003
SUSAUFKZABZRZXB07320MMFR    13N G N31434684W106223027                           FL180FL180UNLTDRR ALBUQUERQUE ARTCC        221672003
SUSAUFKZABZRZXB07330MMFR    13N G N31442455W106234127                           FL180FL180UNLTDRR ALBUQUERQUE ARTCC        221682003
SUSAUFKZABZRZXB07340MMFR    13N G N31444848W106242632                           FL180FL180UNLTDRR ALBUQUERQUE ARTCC        221692003
SUSAUFKZABZRZXB07350MMFR    13N G N31450150W106250927                           FL180FL180UNLTDRR ALBUQUERQUE ARTCC        221702003
SUSAUFKZABZRZXB07360MMFR    13N G N31451217W106265592                           FL180FL180UNLTDRR ALBUQUERQUE ARTCC        221712003
SUSAUFKZABZRZXB07370        13N H N31450000W106300000                           FL180FL180UNLTDRR ALBUQUERQUE ARTCC        221722003
SUSAUFKZABZRZXB07380        13N H N31470000W106320000                           FL180FL180UNLTDRR ALBUQUERQUE ARTCC        221732003
SUSAUFKZABZRZXB07390        13N H N31470000W108120000                           FL180FL180UNLTDRR ALBUQUERQUE ARTCC        221742003
SUSAUFKZABZRZXB07400        13N H N31200000W108120000                           FL180FL180UNLTDRR ALBUQUERQUE ARTCC        221752003
SUSAUFKZABZRZXB07410        13N G N31200000W111050000                           FL180FL180UNLTDRR ALBUQUERQUE ARTCC        221762003
SUSAUFKZABZRZXB07420        13N G N31374900W111580700                           FL180FL180UNLTDRR ALBUQUERQUE ARTCC        221772003
SUSAUFKZABZRZXB07430        13N G N31380000W112000000                           FL180FL180UNLTDRR ALBUQUERQUE ARTCC        221782003
SUSAUFKZABZRZXB07440        13N G N32060000W113303000                           FL180FL180UNLTDRR ALBUQUERQUE ARTCC        221792003
SUSAUFKZABZRZXB07450        13N G N32065842W113304597                           FL180FL180UNLTDRR ALBUQUERQUE ARTCC        221802003
SUSAUFKZABZRZXB07460        13N H N32441500W113410500                           FL180FL180UNLTDRR ALBUQUERQUE ARTCC        221812003
SUSAUFKZABZRZXB07470        13N H N32410000W114000000                           FL180FL180UNLTDRR ALBUQUERQUE ARTCC        221822003
SUSAUFKZABZRZXB07480        13N H N33240000W114000000                           FL180FL180UNLTDRR ALBUQUERQUE ARTCC        221832003
SUSAUFKZABZRZXB07490        13N G N34400000W114000000                           FL180FL180UNLTDRR ALBUQUERQUE ARTCC        221842003
SUSAUFKZABZRZXB07500        13N H N34520000W113370000                           FL180FL180UNLTDRR ALBUQUERQUE ARTCC        221852003
SUSAUFKZABZRZXB07510        13N G N34550000W113370000                           FL180FL180UNLTDRR ALBUQUERQUE ARTCC        221862003
